{
  "contractName": "BlockRegistry",
  "abi": [
    {
      "constant": true,
      "inputs": [],
      "name": "maxVoteTime",
      "outputs": [
        {
          "name": "",
          "type": "uint256"
        }
      ],
      "payable": false,
      "stateMutability": "view",
      "type": "function",
      "signature": "0x06937af5"
    },
    {
      "constant": true,
      "inputs": [],
      "name": "sblockTimeStep",
      "outputs": [
        {
          "name": "",
          "type": "uint256"
        }
      ],
      "payable": false,
      "stateMutability": "view",
      "type": "function",
      "signature": "0x17ca3256"
    },
    {
      "constant": true,
      "inputs": [],
      "name": "QOTAddr",
      "outputs": [
        {
          "name": "",
          "type": "address"
        }
      ],
      "payable": false,
      "stateMutability": "view",
      "type": "function",
      "signature": "0x21a8770d"
    },
    {
      "constant": true,
      "inputs": [],
      "name": "reward",
      "outputs": [
        {
          "name": "",
          "type": "uint256"
        }
      ],
      "payable": false,
      "stateMutability": "view",
      "type": "function",
      "signature": "0x228cb733"
    },
    {
      "constant": true,
      "inputs": [
        {
          "name": "",
          "type": "uint256"
        }
      ],
      "name": "validators",
      "outputs": [
        {
          "name": "",
          "type": "address"
        }
      ],
      "payable": false,
      "stateMutability": "view",
      "type": "function",
      "signature": "0x35aa2e44"
    },
    {
      "constant": true,
      "inputs": [
        {
          "name": "",
          "type": "uint256"
        }
      ],
      "name": "managers",
      "outputs": [
        {
          "name": "",
          "type": "address"
        }
      ],
      "payable": false,
      "stateMutability": "view",
      "type": "function",
      "signature": "0x3d39c260"
    },
    {
      "constant": true,
      "inputs": [],
      "name": "articleCount",
      "outputs": [
        {
          "name": "",
          "type": "uint256"
        }
      ],
      "payable": false,
      "stateMutability": "view",
      "type": "function",
      "signature": "0x414e28b0"
    },
    {
      "constant": true,
      "inputs": [],
      "name": "vote1Threshold",
      "outputs": [
        {
          "name": "",
          "type": "uint256"
        }
      ],
      "payable": false,
      "stateMutability": "view",
      "type": "function",
      "signature": "0x417d63e9"
    },
    {
      "constant": true,
      "inputs": [],
      "name": "numRange",
      "outputs": [
        {
          "name": "",
          "type": "uint8"
        }
      ],
      "payable": false,
      "stateMutability": "view",
      "type": "function",
      "signature": "0x5080ad26"
    },
    {
      "constant": true,
      "inputs": [],
      "name": "roundVote2Count",
      "outputs": [
        {
          "name": "",
          "type": "uint256"
        }
      ],
      "payable": false,
      "stateMutability": "view",
      "type": "function",
      "signature": "0x7376faf2"
    },
    {
      "constant": true,
      "inputs": [],
      "name": "vote2Threshold",
      "outputs": [
        {
          "name": "",
          "type": "uint256"
        }
      ],
      "payable": false,
      "stateMutability": "view",
      "type": "function",
      "signature": "0x82eea47a"
    },
    {
      "constant": true,
      "inputs": [],
      "name": "atV1",
      "outputs": [
        {
          "name": "",
          "type": "bool"
        }
      ],
      "payable": false,
      "stateMutability": "view",
      "type": "function",
      "signature": "0x9bb71caa"
    },
    {
      "constant": true,
      "inputs": [],
      "name": "v1EndTime",
      "outputs": [
        {
          "name": "",
          "type": "uint256"
        }
      ],
      "payable": false,
      "stateMutability": "view",
      "type": "function",
      "signature": "0xa3629b04"
    },
    {
      "constant": true,
      "inputs": [],
      "name": "opRound",
      "outputs": [
        {
          "name": "",
          "type": "uint256"
        }
      ],
      "payable": false,
      "stateMutability": "view",
      "type": "function",
      "signature": "0xb9fedac7"
    },
    {
      "constant": true,
      "inputs": [],
      "name": "memberContractAddr",
      "outputs": [
        {
          "name": "",
          "type": "address"
        }
      ],
      "payable": false,
      "stateMutability": "view",
      "type": "function",
      "signature": "0xc170f356"
    },
    {
      "constant": true,
      "inputs": [],
      "name": "roundVote1Count",
      "outputs": [
        {
          "name": "",
          "type": "uint256"
        }
      ],
      "payable": false,
      "stateMutability": "view",
      "type": "function",
      "signature": "0xd64d8c02"
    },
    {
      "constant": true,
      "inputs": [
        {
          "name": "",
          "type": "uint256"
        }
      ],
      "name": "blockHistory",
      "outputs": [
        {
          "name": "validator",
          "type": "address"
        },
        {
          "name": "blockHeight",
          "type": "uint256"
        },
        {
          "name": "merkleRoot",
          "type": "bytes32"
        },
        {
          "name": "ipfsAddr",
          "type": "bytes32"
        },
        {
          "name": "timestamp",
          "type": "uint256"
        },
        {
          "name": "uniqArticleCount",
          "type": "uint256"
        },
        {
          "name": "vote1Count",
          "type": "uint256"
        },
        {
          "name": "vote2Count",
          "type": "uint256"
        },
        {
          "name": "opRoundId",
          "type": "bytes32"
        },
        {
          "name": "aidMerkleRoot",
          "type": "bytes32"
        },
        {
          "name": "aidIpfsAddr",
          "type": "bytes32"
        }
      ],
      "payable": false,
      "stateMutability": "view",
      "type": "function",
      "signature": "0xde250ace"
    },
    {
      "constant": true,
      "inputs": [],
      "name": "nowSblockNo",
      "outputs": [
        {
          "name": "",
          "type": "uint256"
        }
      ],
      "payable": false,
      "stateMutability": "view",
      "type": "function",
      "signature": "0xdeefebc1"
    },
    {
      "constant": true,
      "inputs": [],
      "name": "v2EndTime",
      "outputs": [
        {
          "name": "",
          "type": "uint256"
        }
      ],
      "payable": false,
      "stateMutability": "view",
      "type": "function",
      "signature": "0xfd0492b1"
    },
    {
      "inputs": [
        {
          "name": "_memberContractAddr",
          "type": "address"
        },
        {
          "name": "_QOTAddr",
          "type": "address"
        }
      ],
      "payable": false,
      "stateMutability": "nonpayable",
      "type": "constructor",
      "signature": "constructor"
    },
    {
      "constant": false,
      "inputs": [
        {
          "name": "_seconds",
          "type": "uint256"
        }
      ],
      "name": "updateMaxVoteTime",
      "outputs": [],
      "payable": false,
      "stateMutability": "nonpayable",
      "type": "function",
      "signature": "0x9786007a"
    },
    {
      "constant": false,
      "inputs": [
        {
          "name": "_x",
          "type": "uint256"
        },
        {
          "name": "_y",
          "type": "uint256"
        }
      ],
      "name": "setThreshold",
      "outputs": [],
      "payable": false,
      "stateMutability": "nonpayable",
      "type": "function",
      "signature": "0xb9c36209"
    },
    {
      "constant": false,
      "inputs": [
        {
          "name": "_merkleRoot",
          "type": "bytes32"
        },
        {
          "name": "_ipfsAddr",
          "type": "bytes32"
        },
        {
          "name": "_aidMerkleRoot",
          "type": "bytes32"
        },
        {
          "name": "_aidIpfsAddr",
          "type": "bytes32"
        },
        {
          "name": "_successRateDB",
          "type": "bytes32"
        },
        {
          "name": "_finalListIpfs",
          "type": "bytes32"
        },
        {
          "name": "_uniqArticleCount",
          "type": "uint256"
        },
        {
          "name": "_vote1Count",
          "type": "uint256"
        },
        {
          "name": "_vote2Count",
          "type": "uint256"
        },
        {
          "name": "_minSuccessRate",
          "type": "uint256"
        },
        {
          "name": "_baseline",
          "type": "uint256"
        }
      ],
      "name": "submitMerkleRoot",
      "outputs": [
        {
          "name": "",
          "type": "bool"
        }
      ],
      "payable": false,
      "stateMutability": "nonpayable",
      "type": "function",
      "signature": "0x2e03c446"
    },
    {
      "constant": true,
      "inputs": [
        {
          "name": "v1Count",
          "type": "uint256"
        }
      ],
      "name": "isEnoughV1",
      "outputs": [
        {
          "name": "",
          "type": "bool"
        }
      ],
      "payable": false,
      "stateMutability": "view",
      "type": "function",
      "signature": "0x0137aca4"
    },
    {
      "constant": true,
      "inputs": [
        {
          "name": "v2Count",
          "type": "uint256"
        }
      ],
      "name": "isEnoughV2",
      "outputs": [
        {
          "name": "",
          "type": "bool"
        }
      ],
      "payable": false,
      "stateMutability": "view",
      "type": "function",
      "signature": "0x6cb0999b"
    },
    {
      "constant": true,
      "inputs": [
        {
          "name": "_mr",
          "type": "bytes32"
        },
        {
          "name": "_bhash",
          "type": "bytes32"
        }
      ],
      "name": "calcLotteryWinNumber",
      "outputs": [
        {
          "name": "",
          "type": "bytes32"
        }
      ],
      "payable": false,
      "stateMutability": "pure",
      "type": "function",
      "signature": "0x513536c1"
    },
    {
      "constant": true,
      "inputs": [
        {
          "name": "_ticket",
          "type": "bytes32"
        },
        {
          "name": "_digit",
          "type": "uint8"
        }
      ],
      "name": "_getBytes32HexNthDigit",
      "outputs": [
        {
          "name": "",
          "type": "bytes1"
        }
      ],
      "payable": false,
      "stateMutability": "pure",
      "type": "function",
      "signature": "0xd17eaa47"
    },
    {
      "constant": true,
      "inputs": [
        {
          "name": "_winHex",
          "type": "bytes32"
        },
        {
          "name": "_ticket",
          "type": "bytes32"
        },
        {
          "name": "_numRange",
          "type": "uint8"
        }
      ],
      "name": "lotteryWins",
      "outputs": [
        {
          "name": "",
          "type": "bool"
        }
      ],
      "payable": false,
      "stateMutability": "pure",
      "type": "function",
      "signature": "0x1b9d40ba"
    },
    {
      "constant": false,
      "inputs": [
        {
          "name": "_numRange",
          "type": "uint8"
        }
      ],
      "name": "setNumRange",
      "outputs": [],
      "payable": false,
      "stateMutability": "nonpayable",
      "type": "function",
      "signature": "0x19305d85"
    },
    {
      "constant": true,
      "inputs": [
        {
          "name": "_opRound",
          "type": "uint256"
        },
        {
          "name": "_ticket",
          "type": "bytes32"
        }
      ],
      "name": "isWinningTicket",
      "outputs": [
        {
          "name": "",
          "type": "bool"
        },
        {
          "name": "",
          "type": "uint256"
        }
      ],
      "payable": false,
      "stateMutability": "view",
      "type": "function",
      "signature": "0x53311f95"
    },
    {
      "constant": true,
      "inputs": [
        {
          "name": "proof",
          "type": "bytes32[]"
        },
        {
          "name": "isLeft",
          "type": "bool[]"
        },
        {
          "name": "txHash",
          "type": "bytes32"
        },
        {
          "name": "_sblockNo",
          "type": "uint256"
        }
      ],
      "name": "txExist",
      "outputs": [
        {
          "name": "",
          "type": "bool"
        }
      ],
      "payable": false,
      "stateMutability": "view",
      "type": "function",
      "signature": "0x316f0d84"
    },
    {
      "constant": true,
      "inputs": [
        {
          "name": "proof",
          "type": "bytes32[]"
        },
        {
          "name": "isLeft",
          "type": "bool[]"
        },
        {
          "name": "aid",
          "type": "bytes32"
        },
        {
          "name": "_sblockNo",
          "type": "uint256"
        }
      ],
      "name": "aidExist",
      "outputs": [
        {
          "name": "",
          "type": "bool"
        }
      ],
      "payable": false,
      "stateMutability": "view",
      "type": "function",
      "signature": "0xc9771591"
    },
    {
      "constant": true,
      "inputs": [
        {
          "name": "_signer",
          "type": "address"
        },
        {
          "name": "_msg",
          "type": "bytes32"
        },
        {
          "name": "_v",
          "type": "uint8"
        },
        {
          "name": "_r",
          "type": "bytes32"
        },
        {
          "name": "_s",
          "type": "bytes32"
        }
      ],
      "name": "verifySignature",
      "outputs": [
        {
          "name": "",
          "type": "bool"
        }
      ],
      "payable": false,
      "stateMutability": "pure",
      "type": "function",
      "signature": "0x02bf9e7f"
    },
    {
      "constant": false,
      "inputs": [
        {
          "name": "_reward",
          "type": "uint256"
        }
      ],
      "name": "setReward",
      "outputs": [],
      "payable": false,
      "stateMutability": "nonpayable",
      "type": "function",
      "signature": "0x293be456"
    },
    {
      "constant": false,
      "inputs": [
        {
          "name": "_opRound",
          "type": "uint256"
        },
        {
          "name": "proof",
          "type": "bytes32[]"
        },
        {
          "name": "isLeft",
          "type": "bool[]"
        },
        {
          "name": "txHash",
          "type": "bytes32"
        },
        {
          "name": "_sblockNo",
          "type": "uint256"
        },
        {
          "name": "_payload",
          "type": "bytes32"
        },
        {
          "name": "_v",
          "type": "uint8"
        },
        {
          "name": "_r",
          "type": "bytes32"
        },
        {
          "name": "_s",
          "type": "bytes32"
        }
      ],
      "name": "claimReward",
      "outputs": [
        {
          "name": "",
          "type": "bool"
        }
      ],
      "payable": false,
      "stateMutability": "nonpayable",
      "type": "function",
      "signature": "0xfd2e4a40"
    },
    {
      "constant": true,
      "inputs": [
        {
          "name": "proof",
          "type": "bytes32[]"
        },
        {
          "name": "isLeft",
          "type": "bool[]"
        },
        {
          "name": "targetLeaf",
          "type": "bytes32"
        },
        {
          "name": "_merkleRoot",
          "type": "bytes32"
        }
      ],
      "name": "merkleTreeValidator",
      "outputs": [
        {
          "name": "",
          "type": "bool"
        }
      ],
      "payable": false,
      "stateMutability": "pure",
      "type": "function",
      "signature": "0xb8f69e37"
    },
    {
      "constant": true,
      "inputs": [],
      "name": "getBlockNo",
      "outputs": [
        {
          "name": "",
          "type": "uint256"
        }
      ],
      "payable": false,
      "stateMutability": "view",
      "type": "function",
      "signature": "0xfba0e4bb"
    },
    {
      "constant": true,
      "inputs": [
        {
          "name": "_sblockNo",
          "type": "uint256"
        }
      ],
      "name": "getBlockInfo",
      "outputs": [
        {
          "name": "",
          "type": "uint256"
        },
        {
          "name": "",
          "type": "bytes32"
        },
        {
          "name": "",
          "type": "bytes32"
        },
        {
          "name": "",
          "type": "bytes32"
        },
        {
          "name": "",
          "type": "bytes32"
        },
        {
          "name": "",
          "type": "bytes32"
        },
        {
          "name": "",
          "type": "address"
        }
      ],
      "payable": false,
      "stateMutability": "view",
      "type": "function",
      "signature": "0xbb141cf4"
    },
    {
      "constant": true,
      "inputs": [
        {
          "name": "_idx",
          "type": "uint256"
        }
      ],
      "name": "queryValidator",
      "outputs": [
        {
          "name": "",
          "type": "address"
        }
      ],
      "payable": false,
      "stateMutability": "view",
      "type": "function",
      "signature": "0x810e0b20"
    },
    {
      "constant": true,
      "inputs": [
        {
          "name": "_addr",
          "type": "address"
        }
      ],
      "name": "isValidator",
      "outputs": [
        {
          "name": "",
          "type": "bool"
        }
      ],
      "payable": false,
      "stateMutability": "view",
      "type": "function",
      "signature": "0xfacd743b"
    },
    {
      "constant": true,
      "inputs": [],
      "name": "queryManagers",
      "outputs": [
        {
          "name": "",
          "type": "address[4]"
        }
      ],
      "payable": false,
      "stateMutability": "view",
      "type": "function",
      "signature": "0xca48c69d"
    },
    {
      "constant": true,
      "inputs": [],
      "name": "queryOpRound",
      "outputs": [
        {
          "name": "",
          "type": "uint256"
        }
      ],
      "payable": false,
      "stateMutability": "view",
      "type": "function",
      "signature": "0x8ccbaca4"
    },
    {
      "constant": true,
      "inputs": [
        {
          "name": "_opRound",
          "type": "uint256"
        }
      ],
      "name": "queryOpRoundId",
      "outputs": [
        {
          "name": "",
          "type": "bytes32"
        }
      ],
      "payable": false,
      "stateMutability": "view",
      "type": "function",
      "signature": "0xd9eb08f6"
    },
    {
      "constant": true,
      "inputs": [
        {
          "name": "_opRound",
          "type": "uint256"
        }
      ],
      "name": "queryOpRoundLottery",
      "outputs": [
        {
          "name": "",
          "type": "uint256"
        },
        {
          "name": "",
          "type": "uint256"
        },
        {
          "name": "",
          "type": "bytes32"
        }
      ],
      "payable": false,
      "stateMutability": "view",
      "type": "function",
      "signature": "0x7c14de6c"
    },
    {
      "constant": true,
      "inputs": [
        {
          "name": "_opRound",
          "type": "uint256"
        }
      ],
      "name": "queryOpRoundInfo",
      "outputs": [
        {
          "name": "",
          "type": "uint256"
        },
        {
          "name": "",
          "type": "bytes32"
        },
        {
          "name": "",
          "type": "uint256"
        }
      ],
      "payable": false,
      "stateMutability": "view",
      "type": "function",
      "signature": "0x57ee34a6"
    },
    {
      "constant": true,
      "inputs": [
        {
          "name": "_opRound",
          "type": "uint256"
        }
      ],
      "name": "queryOpRoundResult",
      "outputs": [
        {
          "name": "",
          "type": "uint256"
        },
        {
          "name": "",
          "type": "bytes32"
        },
        {
          "name": "",
          "type": "uint256"
        },
        {
          "name": "",
          "type": "uint256"
        },
        {
          "name": "",
          "type": "bytes32"
        },
        {
          "name": "",
          "type": "bytes32"
        },
        {
          "name": "",
          "type": "uint256"
        },
        {
          "name": "",
          "type": "bytes32"
        },
        {
          "name": "",
          "type": "uint256"
        }
      ],
      "payable": false,
      "stateMutability": "view",
      "type": "function",
      "signature": "0xf47dae9a"
    },
    {
      "constant": true,
      "inputs": [],
      "name": "queryOpRoundProgress",
      "outputs": [
        {
          "name": "",
          "type": "uint256"
        },
        {
          "name": "",
          "type": "bool"
        },
        {
          "name": "",
          "type": "uint256"
        },
        {
          "name": "",
          "type": "uint256"
        },
        {
          "name": "",
          "type": "uint256"
        },
        {
          "name": "",
          "type": "uint256"
        }
      ],
      "payable": false,
      "stateMutability": "view",
      "type": "function",
      "signature": "0x2656de1a"
    },
    {
      "constant": true,
      "inputs": [],
      "name": "queryVoteThresholds",
      "outputs": [
        {
          "name": "",
          "type": "uint256"
        },
        {
          "name": "",
          "type": "uint256"
        },
        {
          "name": "",
          "type": "uint256"
        }
      ],
      "payable": false,
      "stateMutability": "view",
      "type": "function",
      "signature": "0x86e18f82"
    },
    {
      "constant": true,
      "inputs": [
        {
          "name": "_opRound",
          "type": "uint256"
        }
      ],
      "name": "queryFinalist",
      "outputs": [
        {
          "name": "",
          "type": "uint256"
        },
        {
          "name": "",
          "type": "uint256"
        },
        {
          "name": "",
          "type": "bytes32"
        }
      ],
      "payable": false,
      "stateMutability": "view",
      "type": "function",
      "signature": "0xec5caf2a"
    },
    {
      "constant": false,
      "inputs": [
        {
          "name": "_newValidator",
          "type": "address"
        },
        {
          "name": "_idx",
          "type": "uint256"
        }
      ],
      "name": "setValidator",
      "outputs": [
        {
          "name": "",
          "type": "bool"
        }
      ],
      "payable": false,
      "stateMutability": "nonpayable",
      "type": "function",
      "signature": "0xabb9406b"
    },
    {
      "constant": false,
      "inputs": [
        {
          "name": "_newManager",
          "type": "address"
        }
      ],
      "name": "setManager",
      "outputs": [
        {
          "name": "",
          "type": "bool"
        }
      ],
      "payable": false,
      "stateMutability": "nonpayable",
      "type": "function",
      "signature": "0xd0ebdbe7"
    }
  ],
  "bytecode": "0x60806040526103846017556028601c556028601d556008602060016101000a81548160ff021916908360ff16021790555061038460215560646022553480156200004857600080fd5b506040516040806200621b833981018060405260408110156200006a57600080fd5b81019080805190602001909291908051906020019092919050505081601460006101000a81548173ffffffffffffffffffffffffffffffffffffffff021916908373ffffffffffffffffffffffffffffffffffffffff16021790555080601560006101000a81548173ffffffffffffffffffffffffffffffffffffffff021916908373ffffffffffffffffffffffffffffffffffffffff16021790555060806040519081016040528073b440ea2780614b3c6a00e512f432785e7dfafa3e73ffffffffffffffffffffffffffffffffffffffff1673ffffffffffffffffffffffffffffffffffffffff168152602001734ad56641c569c91c64c28a904cda50ae5326da4173ffffffffffffffffffffffffffffffffffffffff1673ffffffffffffffffffffffffffffffffffffffff16815260200173af7400787c54422be8b44154b1273661f1259ccd73ffffffffffffffffffffffffffffffffffffffff1673ffffffffffffffffffffffffffffffffffffffff168152602001600073ffffffffffffffffffffffffffffffffffffffff1673ffffffffffffffffffffffffffffffffffffffff16815250600090600462000228929190620006fe565b506102006040519081016040528073b440ea2780614b3c6a00e512f432785e7dfafa3e73ffffffffffffffffffffffffffffffffffffffff1673ffffffffffffffffffffffffffffffffffffffff168152602001734ad56641c569c91c64c28a904cda50ae5326da4173ffffffffffffffffffffffffffffffffffffffff1673ffffffffffffffffffffffffffffffffffffffff16815260200173af7400787c54422be8b44154b1273661f1259ccd73ffffffffffffffffffffffffffffffffffffffff1673ffffffffffffffffffffffffffffffffffffffff168152602001600073ffffffffffffffffffffffffffffffffffffffff1673ffffffffffffffffffffffffffffffffffffffff168152602001600073ffffffffffffffffffffffffffffffffffffffff1673ffffffffffffffffffffffffffffffffffffffff168152602001600073ffffffffffffffffffffffffffffffffffffffff1673ffffffffffffffffffffffffffffffffffffffff168152602001600073ffffffffffffffffffffffffffffffffffffffff1673ffffffffffffffffffffffffffffffffffffffff168152602001600073ffffffffffffffffffffffffffffffffffffffff1673ffffffffffffffffffffffffffffffffffffffff168152602001600073ffffffffffffffffffffffffffffffffffffffff1673ffffffffffffffffffffffffffffffffffffffff168152602001600073ffffffffffffffffffffffffffffffffffffffff1673ffffffffffffffffffffffffffffffffffffffff168152602001600073ffffffffffffffffffffffffffffffffffffffff1673ffffffffffffffffffffffffffffffffffffffff168152602001600073ffffffffffffffffffffffffffffffffffffffff1673ffffffffffffffffffffffffffffffffffffffff168152602001600073ffffffffffffffffffffffffffffffffffffffff1673ffffffffffffffffffffffffffffffffffffffff168152602001600073ffffffffffffffffffffffffffffffffffffffff1673ffffffffffffffffffffffffffffffffffffffff168152602001600073ffffffffffffffffffffffffffffffffffffffff1673ffffffffffffffffffffffffffffffffffffffff168152602001600073ffffffffffffffffffffffffffffffffffffffff1673ffffffffffffffffffffffffffffffffffffffff168152506004906010620005af92919062000780565b50610160604051908101604052803373ffffffffffffffffffffffffffffffffffffffff1681526020014381526020016000600102815260200160006001028152602001428152602001600081526020016000815260200160008152602001600060010281526020016000600102815260200160006001028152506023600080815260200190815260200160002060008201518160000160006101000a81548173ffffffffffffffffffffffffffffffffffffffff021916908373ffffffffffffffffffffffffffffffffffffffff1602179055506020820151816001015560408201518160020155606082015181600301556080820151816004015560a0820151816005015560c0820151816006015560e082015181600701556101008201518160080155610120820151816009015561014082015181600a01559050506001601681905550505062000848565b82600481019282156200076d579160200282015b828111156200076c5782518260006101000a81548173ffffffffffffffffffffffffffffffffffffffff021916908373ffffffffffffffffffffffffffffffffffffffff1602179055509160200191906001019062000712565b5b5090506200077c919062000802565b5090565b8260108101928215620007ef579160200282015b82811115620007ee5782518260006101000a81548173ffffffffffffffffffffffffffffffffffffffff021916908373ffffffffffffffffffffffffffffffffffffffff1602179055509160200191906001019062000794565b5b509050620007fe919062000802565b5090565b6200084591905b808211156200084157600081816101000a81549073ffffffffffffffffffffffffffffffffffffffff02191690555060010162000809565b5090565b90565b6159c380620008586000396000f3fe608060405234801561001057600080fd5b50600436106102f3576000357c01000000000000000000000000000000000000000000000000000000009004806386e18f821161019f578063ca48c69d11610106578063deefebc1116100bf578063facd743b11610099578063facd743b14611373578063fba0e4bb146113cf578063fd0492b1146113ed578063fd2e4a401461140b576102f3565b8063deefebc11461128b578063ec5caf2a146112a9578063f47dae9a146112f9576102f3565b8063ca48c69d14611042578063d0ebdbe714611088578063d17eaa47146110e4578063d64d8c0214611177578063d9eb08f614611195578063de250ace146111d7576102f3565b8063b8f69e3711610158578063b8f69e3714610c1a578063b9c3620914610d92578063b9fedac714610dca578063bb141cf414610de8578063c170f35614610e80578063c977159114610eca576102f3565b806386e18f8214610afc5780638ccbaca414610b285780639786007a14610b465780639bb71caa14610b74578063a3629b0414610b96578063abb9406b14610bb4576102f3565b806335aa2e441161025e57806353311f95116102175780637376faf2116101f15780637376faf214610a025780637c14de6c14610a20578063810e0b2014610a7057806382eea47a14610ade576102f3565b806353311f951461091557806357ee34a61461096c5780636cb0999b146109bc576102f3565b806335aa2e441461078d5780633d39c260146107fb578063414e28b014610869578063417d63e9146108875780635080ad26146108a5578063513536c1146108c9576102f3565b806321a8770d116102b057806321a8770d1461048f578063228cb733146104d95780632656de1a146104f7578063293be4561461053c5780632e03c4461461056a578063316f0d8414610615576102f3565b80630137aca4146102f857806302bf9e7f1461033e57806306937af5146103c557806317ca3256146103e357806319305d85146104015780631b9d40ba14610432575b600080fd5b6103246004803603602081101561030e57600080fd5b810190808035906020019092919050505061153b565b604051808215151515815260200191505060405180910390f35b6103ab600480360360a081101561035457600080fd5b81019080803573ffffffffffffffffffffffffffffffffffffffff16906020019092919080359060200190929190803560ff1690602001909291908035906020019092919080359060200190929190505050611640565b604051808215151515815260200191505060405180910390f35b6103cd6116e7565b6040518082815260200191505060405180910390f35b6103eb6116ed565b6040518082815260200191505060405180910390f35b6104306004803603602081101561041757600080fd5b81019080803560ff1690602001909291905050506116f3565b005b6104756004803603606081101561044857600080fd5b810190808035906020019092919080359060200190929190803560ff16906020019092919050505061190f565b604051808215151515815260200191505060405180910390f35b610497611a72565b604051808273ffffffffffffffffffffffffffffffffffffffff1673ffffffffffffffffffffffffffffffffffffffff16815260200191505060405180910390f35b6104e1611a98565b6040518082815260200191505060405180910390f35b6104ff611a9e565b6040518087815260200186151515158152602001858152602001848152602001838152602001828152602001965050505050505060405180910390f35b6105686004803603602081101561055257600080fd5b8101908080359060200190929190505050611ada565b005b6105fb600480360361016081101561058157600080fd5b810190808035906020019092919080359060200190929190803590602001909291908035906020019092919080359060200190929190803590602001909291908035906020019092919080359060200190929190803590602001909291908035906020019092919080359060200190929190505050611cd2565b604051808215151515815260200191505060405180910390f35b6107736004803603608081101561062b57600080fd5b810190808035906020019064010000000081111561064857600080fd5b82018360208201111561065a57600080fd5b8035906020019184602083028401116401000000008311171561067c57600080fd5b919080806020026020016040519081016040528093929190818152602001838360200280828437600081840152601f19601f820116905080830192505050505050509192919290803590602001906401000000008111156106dc57600080fd5b8201836020820111156106ee57600080fd5b8035906020019184602083028401116401000000008311171561071057600080fd5b919080806020026020016040519081016040528093929190818152602001838360200280828437600081840152601f19601f8201169050808301925050505050505091929192908035906020019092919080359060200190929190505050612f9e565b604051808215151515815260200191505060405180910390f35b6107b9600480360360208110156107a357600080fd5b8101908080359060200190929190505050613005565b604051808273ffffffffffffffffffffffffffffffffffffffff1673ffffffffffffffffffffffffffffffffffffffff16815260200191505060405180910390f35b6108276004803603602081101561081157600080fd5b810190808035906020019092919050505061303a565b604051808273ffffffffffffffffffffffffffffffffffffffff1673ffffffffffffffffffffffffffffffffffffffff16815260200191505060405180910390f35b61087161306f565b6040518082815260200191505060405180910390f35b61088f613075565b6040518082815260200191505060405180910390f35b6108ad61307b565b604051808260ff1660ff16815260200191505060405180910390f35b6108ff600480360360408110156108df57600080fd5b81019080803590602001909291908035906020019092919050505061308e565b6040518082815260200191505060405180910390f35b61094b6004803603604081101561092b57600080fd5b8101908080359060200190929190803590602001909291905050506130c7565b60405180831515151581526020018281526020019250505060405180910390f35b6109986004803603602081101561098257600080fd5b81019080803590602001909291905050506130f9565b60405180848152602001838152602001828152602001935050505060405180910390f35b6109e8600480360360208110156109d257600080fd5b8101908080359060200190929190505050613153565b604051808215151515815260200191505060405180910390f35b610a0a613259565b6040518082815260200191505060405180910390f35b610a4c60048036036020811015610a3657600080fd5b810190808035906020019092919050505061325f565b60405180848152602001838152602001828152602001935050505060405180910390f35b610a9c60048036036020811015610a8657600080fd5b81019080803590602001909291905050506132b9565b604051808273ffffffffffffffffffffffffffffffffffffffff1673ffffffffffffffffffffffffffffffffffffffff16815260200191505060405180910390f35b610ae661330e565b6040518082815260200191505060405180910390f35b610b04613314565b60405180848152602001838152602001828152602001935050505060405180910390f35b610b3061332d565b6040518082815260200191505060405180910390f35b610b7260048036036020811015610b5c57600080fd5b8101908080359060200190929190505050613337565b005b610b7c613a0d565b604051808215151515815260200191505060405180910390f35b610b9e613a20565b6040518082815260200191505060405180910390f35b610c0060048036036040811015610bca57600080fd5b81019080803573ffffffffffffffffffffffffffffffffffffffff16906020019092919080359060200190929190505050613a26565b604051808215151515815260200191505060405180910390f35b610d7860048036036080811015610c3057600080fd5b8101908080359060200190640100000000811115610c4d57600080fd5b820183602082011115610c5f57600080fd5b80359060200191846020830284011164010000000083111715610c8157600080fd5b919080806020026020016040519081016040528093929190818152602001838360200280828437600081840152601f19601f82011690508083019250505050505050919291929080359060200190640100000000811115610ce157600080fd5b820183602082011115610cf357600080fd5b80359060200191846020830284011164010000000083111715610d1557600080fd5b919080806020026020016040519081016040528093929190818152602001838360200280828437600081840152601f19601f8201169050808301925050505050505091929192908035906020019092919080359060200190929190505050613cb3565b604051808215151515815260200191505060405180910390f35b610dc860048036036040811015610da857600080fd5b810190808035906020019092919080359060200190929190505050613dd7565b005b610dd26144d2565b6040518082815260200191505060405180910390f35b610e1460048036036020811015610dfe57600080fd5b81019080803590602001909291905050506144d8565b604051808881526020018781526020018681526020018581526020018481526020018381526020018273ffffffffffffffffffffffffffffffffffffffff1673ffffffffffffffffffffffffffffffffffffffff16815260200197505050505050505060405180910390f35b610e886145bd565b604051808273ffffffffffffffffffffffffffffffffffffffff1673ffffffffffffffffffffffffffffffffffffffff16815260200191505060405180910390f35b61102860048036036080811015610ee057600080fd5b8101908080359060200190640100000000811115610efd57600080fd5b820183602082011115610f0f57600080fd5b80359060200191846020830284011164010000000083111715610f3157600080fd5b919080806020026020016040519081016040528093929190818152602001838360200280828437600081840152601f19601f82011690508083019250505050505050919291929080359060200190640100000000811115610f9157600080fd5b820183602082011115610fa357600080fd5b80359060200191846020830284011164010000000083111715610fc557600080fd5b919080806020026020016040519081016040528093929190818152602001838360200280828437600081840152601f19601f82011690508083019250505050505050919291929080359060200190929190803590602001909291905050506145e3565b604051808215151515815260200191505060405180910390f35b61104a61464a565b6040518082600460200280838360005b8381101561107557808201518184015260208101905061105a565b5050505090500191505060405180910390f35b6110ca6004803603602081101561109e57600080fd5b81019080803573ffffffffffffffffffffffffffffffffffffffff1690602001909291905050506146cb565b604051808215151515815260200191505060405180910390f35b61111d600480360360408110156110fa57600080fd5b8101908080359060200190929190803560ff169060200190929190505050614900565b60405180827effffffffffffffffffffffffffffffffffffffffffffffffffffffffffffff19167effffffffffffffffffffffffffffffffffffffffffffffffffffffffffffff1916815260200191505060405180910390f35b61117f614a7d565b6040518082815260200191505060405180910390f35b6111c1600480360360208110156111ab57600080fd5b8101908080359060200190929190505050614a83565b6040518082815260200191505060405180910390f35b611203600480360360208110156111ed57600080fd5b8101908080359060200190929190505050614acd565b604051808c73ffffffffffffffffffffffffffffffffffffffff1673ffffffffffffffffffffffffffffffffffffffff1681526020018b81526020018a81526020018981526020018881526020018781526020018681526020018581526020018481526020018381526020018281526020019b50505050505050505050505060405180910390f35b611293614b47565b6040518082815260200191505060405180910390f35b6112d5600480360360208110156112bf57600080fd5b8101908080359060200190929190505050614b4d565b60405180848152602001838152602001828152602001935050505060405180910390f35b6113256004803603602081101561130f57600080fd5b8101908080359060200190929190505050614ba7565b604051808a8152602001898152602001888152602001878152602001868152602001858152602001848152602001838152602001828152602001995050505050505050505060405180910390f35b6113b56004803603602081101561138957600080fd5b81019080803573ffffffffffffffffffffffffffffffffffffffff169060200190929190505050614cb4565b604051808215151515815260200191505060405180910390f35b6113d7615363565b6040518082815260200191505060405180910390f35b6113f561536d565b6040518082815260200191505060405180910390f35b611521600480360361012081101561142257600080fd5b81019080803590602001909291908035906020019064010000000081111561144957600080fd5b82018360208201111561145b57600080fd5b8035906020019184602083028401116401000000008311171561147d57600080fd5b90919293919293908035906020019064010000000081111561149e57600080fd5b8201836020820111156114b057600080fd5b803590602001918460208302840111640100000000831117156114d257600080fd5b9091929391929390803590602001909291908035906020019092919080359060200190929190803560ff1690602001909291908035906020019092919080359060200190929190505050615373565b604051808215151515815260200191505060405180910390f35b600080601460009054906101000a900473ffffffffffffffffffffffffffffffffffffffff1673ffffffffffffffffffffffffffffffffffffffff166322faa41f6040518163ffffffff167c010000000000000000000000000000000000000000000000000000000002815260040160206040518083038186803b1580156115c257600080fd5b505afa1580156115d6573d6000803e3d6000fd5b505050506040513d60208110156115ec57600080fd5b810190808051906020019092919050505090506003811015151561160f57600080fd5b6000818460640281151561161f57fe5b049050601c54811015156116385760019250505061163b565b50505b919050565b60008060018686868660405160008152602001604052604051808581526020018460ff1660ff1681526020018381526020018281526020019450505050506020604051602081039080840390855afa1580156116a0573d6000803e3d6000fd5b5050506020604051035190508073ffffffffffffffffffffffffffffffffffffffff168773ffffffffffffffffffffffffffffffffffffffff161491505095945050505050565b60215481565b60175481565b600073ffffffffffffffffffffffffffffffffffffffff163373ffffffffffffffffffffffffffffffffffffffff161415151561172f57600080fd5b60008060048110151561173e57fe5b0160009054906101000a900473ffffffffffffffffffffffffffffffffffffffff1673ffffffffffffffffffffffffffffffffffffffff163373ffffffffffffffffffffffffffffffffffffffff1614806117f55750600060016004811015156117a457fe5b0160009054906101000a900473ffffffffffffffffffffffffffffffffffffffff1673ffffffffffffffffffffffffffffffffffffffff163373ffffffffffffffffffffffffffffffffffffffff16145b8061185c57506000600260048110151561180b57fe5b0160009054906101000a900473ffffffffffffffffffffffffffffffffffffffff1673ffffffffffffffffffffffffffffffffffffffff163373ffffffffffffffffffffffffffffffffffffffff16145b806118c357506000600360048110151561187257fe5b0160009054906101000a900473ffffffffffffffffffffffffffffffffffffffff1673ffffffffffffffffffffffffffffffffffffffff163373ffffffffffffffffffffffffffffffffffffffff16145b15156118ce57600080fd5b60018160ff16101580156118e65750600f8160ff1611155b15156118f157600080fd5b80602060016101000a81548160ff021916908360ff16021790555050565b600060018260ff1610158015611929575060108260ff1611155b151561193457600080fd5b60006004611943866000614900565b7f0100000000000000000000000000000000000000000000000000000000000000900460ff1681151561197257fe5b069050600061198286603f614900565b90506000817f0100000000000000000000000000000000000000000000000000000000000000900490506000601086830160ff168115156119bf57fe5b06905060006119d18886603f03614900565b7f0100000000000000000000000000000000000000000000000000000000000000900490508260ff168260ff161115611a37578260ff168160ff1610158015611a1f57508160ff168160ff16105b15611a3257600195505050505050611a6b565b611a65565b8260ff168160ff16101580611a5157508160ff168160ff16105b15611a6457600195505050505050611a6b565b5b50505050505b9392505050565b601560009054906101000a900473ffffffffffffffffffffffffffffffffffffffff1681565b60225481565b600080600080600080601954602060009054906101000a900460ff16601e54601f54601a54601b54955095509550955095509550909192939495565b600073ffffffffffffffffffffffffffffffffffffffff163373ffffffffffffffffffffffffffffffffffffffff1614151515611b1657600080fd5b600080600481101515611b2557fe5b0160009054906101000a900473ffffffffffffffffffffffffffffffffffffffff1673ffffffffffffffffffffffffffffffffffffffff163373ffffffffffffffffffffffffffffffffffffffff161480611bdc575060006001600481101515611b8b57fe5b0160009054906101000a900473ffffffffffffffffffffffffffffffffffffffff1673ffffffffffffffffffffffffffffffffffffffff163373ffffffffffffffffffffffffffffffffffffffff16145b80611c43575060006002600481101515611bf257fe5b0160009054906101000a900473ffffffffffffffffffffffffffffffffffffffff1673ffffffffffffffffffffffffffffffffffffffff163373ffffffffffffffffffffffffffffffffffffffff16145b80611caa575060006003600481101515611c5957fe5b0160009054906101000a900473ffffffffffffffffffffffffffffffffffffffff1673ffffffffffffffffffffffffffffffffffffffff163373ffffffffffffffffffffffffffffffffffffffff16145b1515611cb557600080fd5b600a6022540281101515611cc857600080fd5b8060228190555050565b60008073ffffffffffffffffffffffffffffffffffffffff163373ffffffffffffffffffffffffffffffffffffffff1614151515611d0f57600080fd5b60046000601081101515611d1f57fe5b0160009054906101000a900473ffffffffffffffffffffffffffffffffffffffff1673ffffffffffffffffffffffffffffffffffffffff163373ffffffffffffffffffffffffffffffffffffffff161480611dd6575060046001601081101515611d8557fe5b0160009054906101000a900473ffffffffffffffffffffffffffffffffffffffff1673ffffffffffffffffffffffffffffffffffffffff163373ffffffffffffffffffffffffffffffffffffffff16145b80611e3d575060046002601081101515611dec57fe5b0160009054906101000a900473ffffffffffffffffffffffffffffffffffffffff1673ffffffffffffffffffffffffffffffffffffffff163373ffffffffffffffffffffffffffffffffffffffff16145b80611ea4575060046003601081101515611e5357fe5b0160009054906101000a900473ffffffffffffffffffffffffffffffffffffffff1673ffffffffffffffffffffffffffffffffffffffff163373ffffffffffffffffffffffffffffffffffffffff16145b80611f0a5750600480601081101515611eb957fe5b0160009054906101000a900473ffffffffffffffffffffffffffffffffffffffff1673ffffffffffffffffffffffffffffffffffffffff163373ffffffffffffffffffffffffffffffffffffffff16145b80611f71575060046005601081101515611f2057fe5b0160009054906101000a900473ffffffffffffffffffffffffffffffffffffffff1673ffffffffffffffffffffffffffffffffffffffff163373ffffffffffffffffffffffffffffffffffffffff16145b80611fd8575060046006601081101515611f8757fe5b0160009054906101000a900473ffffffffffffffffffffffffffffffffffffffff1673ffffffffffffffffffffffffffffffffffffffff163373ffffffffffffffffffffffffffffffffffffffff16145b8061203f575060046007601081101515611fee57fe5b0160009054906101000a900473ffffffffffffffffffffffffffffffffffffffff1673ffffffffffffffffffffffffffffffffffffffff163373ffffffffffffffffffffffffffffffffffffffff16145b806120a657506004600860108110151561205557fe5b0160009054906101000a900473ffffffffffffffffffffffffffffffffffffffff1673ffffffffffffffffffffffffffffffffffffffff163373ffffffffffffffffffffffffffffffffffffffff16145b8061210d5750600460096010811015156120bc57fe5b0160009054906101000a900473ffffffffffffffffffffffffffffffffffffffff1673ffffffffffffffffffffffffffffffffffffffff163373ffffffffffffffffffffffffffffffffffffffff16145b8061217457506004600a60108110151561212357fe5b0160009054906101000a900473ffffffffffffffffffffffffffffffffffffffff1673ffffffffffffffffffffffffffffffffffffffff163373ffffffffffffffffffffffffffffffffffffffff16145b806121db57506004600b60108110151561218a57fe5b0160009054906101000a900473ffffffffffffffffffffffffffffffffffffffff1673ffffffffffffffffffffffffffffffffffffffff163373ffffffffffffffffffffffffffffffffffffffff16145b8061224257506004600c6010811015156121f157fe5b0160009054906101000a900473ffffffffffffffffffffffffffffffffffffffff1673ffffffffffffffffffffffffffffffffffffffff163373ffffffffffffffffffffffffffffffffffffffff16145b806122a957506004600d60108110151561225857fe5b0160009054906101000a900473ffffffffffffffffffffffffffffffffffffffff1673ffffffffffffffffffffffffffffffffffffffff163373ffffffffffffffffffffffffffffffffffffffff16145b8061231057506004600e6010811015156122bf57fe5b0160009054906101000a900473ffffffffffffffffffffffffffffffffffffffff1673ffffffffffffffffffffffffffffffffffffffff163373ffffffffffffffffffffffffffffffffffffffff16145b8061237757506004600f60108110151561232657fe5b0160009054906101000a900473ffffffffffffffffffffffffffffffffffffffff1673ffffffffffffffffffffffffffffffffffffffff163373ffffffffffffffffffffffffffffffffffffffff16145b151561238257600080fd5b6078602360006001601654038152602001908152602001600020600401540142101515156123af57600080fd5b6005602360006001601654038152602001908152602001600020600101540143101515156123dc57600080fd5b60006001028c141580156123f4575060006001028b14155b15156123ff57600080fd5b8b602360006001601654038152602001908152602001600020600201541415801561244557508a6023600060016016540381526020019081526020016000206003015414155b151561245057600080fd5b6000602360006016548152602001908152602001600020600101541480156124935750600060010260236000601654815260200190815260200160002060020154145b80156124ba5750600060010260236000601654815260200190815260200160002060030154145b80156124de5750600060236000601654815260200190815260200160002060040154145b15156124e957600080fd5b600083101580156124fa5750606483105b151561250557600080fd5b60006001028a1415801561251d575060006001028914155b151561252857600080fd5b600060185414801561253f57506007866019540110155b156126a757610160604051908101604052803373ffffffffffffffffffffffffffffffffffffffff1681526020014381526020018d81526020018c81526020014281526020018781526020018681526020018581526020016024600060185481526020019081526020016000206000015481526020018b81526020018a81525060236000601654815260200190815260200160002060008201518160000160006101000a81548173ffffffffffffffffffffffffffffffffffffffff021916908373ffffffffffffffffffffffffffffffffffffffff1602179055506020820151816001015560408201518160020155606082015181600301556080820151816004015560a0820151816005015560c0820151816006015560e082015181600701556101008201518160080155610120820151816009015561014082015181600a015590505042601f819055506126a28c600080600060010260006001026156b8565b612f7a565b6000601854141580156126c65750602060009054906101000a900460ff165b80156126d75750602154601f544203115b1561285157610160604051908101604052803373ffffffffffffffffffffffffffffffffffffffff1681526020014381526020018d81526020018c81526020014281526020018781526020018681526020018581526020016024600060185481526020019081526020016000206000015481526020018b81526020018a81525060236000601654815260200190815260200160002060008201518160000160006101000a81548173ffffffffffffffffffffffffffffffffffffffff021916908373ffffffffffffffffffffffffffffffffffffffff1602179055506020820151816001015560408201518160020155606082015181600301556080820151816004015560a0820151816005015560c0820151816006015560e082015181600701556101008201518160080155610120820151816009015561014082015181600a015590505060014203601e8190555042601f81905550612839601c5461587e565b601c8190555061284c8c84848b8b6156b8565b612f79565b6000601854141580156128705750602060009054906101000a900460ff165b8015612885575061288485601a540161153b565b5b15612aa2576000602460006018548152602001908152602001600020600201541480156128cd5750600060010260246000601854815260200190815260200160002060030154145b15156128d857600080fd5b610160604051908101604052803373ffffffffffffffffffffffffffffffffffffffff1681526020014381526020018d81526020018c81526020014281526020018781526020018681526020018581526020016024600060185481526020019081526020016000206000015481526020018b81526020018a81525060236000601654815260200190815260200160002060008201518160000160006101000a81548173ffffffffffffffffffffffffffffffffffffffff021916908373ffffffffffffffffffffffffffffffffffffffff1602179055506020820151816001015560408201518160020155606082015181600301556080820151816004015560a0820151816005015560c0820151816006015560e082015181600701556101008201518160080155610120820151816009015561014082015181600a015590505042601e81905550612a2b601c546158b2565b601c8190555060165460246000601854815260200190815260200160002060020181905550612a5e8c600143034061308e565b602460006018548152602001908152602001600020600301819055506000601b819055506000602060006101000a81548160ff021916908315150217905550612f78565b600060185414158015612ac8575060001515602060009054906101000a900460ff161515145b8015612ad95750602154601e544203115b15612c4957610160604051908101604052803373ffffffffffffffffffffffffffffffffffffffff1681526020014381526020018d81526020018c81526020014281526020018781526020018681526020018581526020016024600060185481526020019081526020016000206000015481526020018b81526020018a81525060236000601654815260200190815260200160002060008201518160000160006101000a81548173ffffffffffffffffffffffffffffffffffffffff021916908373ffffffffffffffffffffffffffffffffffffffff1602179055506020820151816001015560408201518160020155606082015181600301556080820151816004015560a0820151816005015560c0820151816006015560e082015181600701556101008201518160080155610120820151816009015561014082015181600a0155905050612c2a601d5461587e565b601d8190555042601f81905550612c448c84848b8b6156b8565b612f77565b600060185414158015612c6f575060001515602060009054906101000a900460ff161515145b8015612c845750612c8384601b5401613153565b5b15612e045760018210151515612c9957600080fd5b610160604051908101604052803373ffffffffffffffffffffffffffffffffffffffff1681526020014381526020018d81526020018c81526020014281526020018781526020018681526020018581526020016024600060185481526020019081526020016000206000015481526020018b81526020018a81525060236000601654815260200190815260200160002060008201518160000160006101000a81548173ffffffffffffffffffffffffffffffffffffffff021916908373ffffffffffffffffffffffffffffffffffffffff1602179055506020820151816001015560408201518160020155606082015181600301556080820151816004015560a0820151816005015560c0820151816006015560e082015181600701556101008201518160080155610120820151816009015561014082015181600a0155905050612de5601d546158b2565b601d8190555042601f81905550612dff8c84848b8b6156b8565b612f76565b84601a6000828254019250508190555083601b6000828254019250508190555085601960008282540192505081905550610160604051908101604052803373ffffffffffffffffffffffffffffffffffffffff1681526020014381526020018d81526020018c81526020014281526020018781526020018681526020018581526020016024600060185481526020019081526020016000206000015481526020018b81526020018a81525060236000601654815260200190815260200160002060008201518160000160006101000a81548173ffffffffffffffffffffffffffffffffffffffff021916908373ffffffffffffffffffffffffffffffffffffffff1602179055506020820151816001015560408201518160020155606082015181600301556080820151816004015560a0820151816005015560c0820151816006015560e082015181600701556101008201518160080155610120820151816009015561014082015181600a01559050505b5b5b5b5b6001601660008282540192505081905550600190509b9a5050505050505050505050565b600060165482101515612fb057600080fd5b6000600102602360008481526020019081526020016000206002015414151515612fd957600080fd5b612ffb8585856023600087815260200190815260200160002060020154613cb3565b9050949350505050565b60048160108110151561301457fe5b016000915054906101000a900473ffffffffffffffffffffffffffffffffffffffff1681565b60008160048110151561304957fe5b016000915054906101000a900473ffffffffffffffffffffffffffffffffffffffff1681565b60195481565b601c5481565b602060019054906101000a900460ff1681565b60008282604051602001808381526020018281526020019250505060405160208183030381529060405280519060200120905092915050565b6000806130d484846158d3565b6024600060018703815260200190815260200160002060040154915091509250929050565b6000806000806000851415613112576018549050613116565b8490505b8060246000838152602001908152602001600020600001546024600084815260200190815260200160002060010154935093509350509193909250565b600080601460009054906101000a900473ffffffffffffffffffffffffffffffffffffffff1673ffffffffffffffffffffffffffffffffffffffff166322faa41f6040518163ffffffff167c010000000000000000000000000000000000000000000000000000000002815260040160206040518083038186803b1580156131da57600080fd5b505afa1580156131ee573d6000803e3d6000fd5b505050506040513d602081101561320457600080fd5b810190808051906020019092919050505090506003811015151561322757600080fd5b600081846103200281151561323857fe5b049050601d548110151561325157600192505050613254565b50505b919050565b601b5481565b600080600080600085141561327857601854905061327c565b8490505b8060246000838152602001908152602001600020600201546024600084815260200190815260200160002060030154935093509350509193909250565b60008082101580156132cb5750601082105b15156132d657600080fd5b6004826010811015156132e557fe5b0160009054906101000a900473ffffffffffffffffffffffffffffffffffffffff169050919050565b601d5481565b6000806000601854601c54601d54925092509250909192565b6000601854905090565b600073ffffffffffffffffffffffffffffffffffffffff163373ffffffffffffffffffffffffffffffffffffffff161415151561337357600080fd5b6004600060108110151561338357fe5b0160009054906101000a900473ffffffffffffffffffffffffffffffffffffffff1673ffffffffffffffffffffffffffffffffffffffff163373ffffffffffffffffffffffffffffffffffffffff16148061343a5750600460016010811015156133e957fe5b0160009054906101000a900473ffffffffffffffffffffffffffffffffffffffff1673ffffffffffffffffffffffffffffffffffffffff163373ffffffffffffffffffffffffffffffffffffffff16145b806134a157506004600260108110151561345057fe5b0160009054906101000a900473ffffffffffffffffffffffffffffffffffffffff1673ffffffffffffffffffffffffffffffffffffffff163373ffffffffffffffffffffffffffffffffffffffff16145b806135085750600460036010811015156134b757fe5b0160009054906101000a900473ffffffffffffffffffffffffffffffffffffffff1673ffffffffffffffffffffffffffffffffffffffff163373ffffffffffffffffffffffffffffffffffffffff16145b8061356e575060048060108110151561351d57fe5b0160009054906101000a900473ffffffffffffffffffffffffffffffffffffffff1673ffffffffffffffffffffffffffffffffffffffff163373ffffffffffffffffffffffffffffffffffffffff16145b806135d557506004600560108110151561358457fe5b0160009054906101000a900473ffffffffffffffffffffffffffffffffffffffff1673ffffffffffffffffffffffffffffffffffffffff163373ffffffffffffffffffffffffffffffffffffffff16145b8061363c5750600460066010811015156135eb57fe5b0160009054906101000a900473ffffffffffffffffffffffffffffffffffffffff1673ffffffffffffffffffffffffffffffffffffffff163373ffffffffffffffffffffffffffffffffffffffff16145b806136a357506004600760108110151561365257fe5b0160009054906101000a900473ffffffffffffffffffffffffffffffffffffffff1673ffffffffffffffffffffffffffffffffffffffff163373ffffffffffffffffffffffffffffffffffffffff16145b8061370a5750600460086010811015156136b957fe5b0160009054906101000a900473ffffffffffffffffffffffffffffffffffffffff1673ffffffffffffffffffffffffffffffffffffffff163373ffffffffffffffffffffffffffffffffffffffff16145b8061377157506004600960108110151561372057fe5b0160009054906101000a900473ffffffffffffffffffffffffffffffffffffffff1673ffffffffffffffffffffffffffffffffffffffff163373ffffffffffffffffffffffffffffffffffffffff16145b806137d857506004600a60108110151561378757fe5b0160009054906101000a900473ffffffffffffffffffffffffffffffffffffffff1673ffffffffffffffffffffffffffffffffffffffff163373ffffffffffffffffffffffffffffffffffffffff16145b8061383f57506004600b6010811015156137ee57fe5b0160009054906101000a900473ffffffffffffffffffffffffffffffffffffffff1673ffffffffffffffffffffffffffffffffffffffff163373ffffffffffffffffffffffffffffffffffffffff16145b806138a657506004600c60108110151561385557fe5b0160009054906101000a900473ffffffffffffffffffffffffffffffffffffffff1673ffffffffffffffffffffffffffffffffffffffff163373ffffffffffffffffffffffffffffffffffffffff16145b8061390d57506004600d6010811015156138bc57fe5b0160009054906101000a900473ffffffffffffffffffffffffffffffffffffffff1673ffffffffffffffffffffffffffffffffffffffff163373ffffffffffffffffffffffffffffffffffffffff16145b8061397457506004600e60108110151561392357fe5b0160009054906101000a900473ffffffffffffffffffffffffffffffffffffffff1673ffffffffffffffffffffffffffffffffffffffff163373ffffffffffffffffffffffffffffffffffffffff16145b806139db57506004600f60108110151561398a57fe5b0160009054906101000a900473ffffffffffffffffffffffffffffffffffffffff1673ffffffffffffffffffffffffffffffffffffffff163373ffffffffffffffffffffffffffffffffffffffff16145b15156139e657600080fd5b60b4811180156139f857506201518081105b1515613a0357600080fd5b8060218190555050565b602060009054906101000a900460ff1681565b601e5481565b60008073ffffffffffffffffffffffffffffffffffffffff163373ffffffffffffffffffffffffffffffffffffffff1614151515613a6357600080fd5b600080600481101515613a7257fe5b0160009054906101000a900473ffffffffffffffffffffffffffffffffffffffff1673ffffffffffffffffffffffffffffffffffffffff163373ffffffffffffffffffffffffffffffffffffffff161480613b29575060006001600481101515613ad857fe5b0160009054906101000a900473ffffffffffffffffffffffffffffffffffffffff1673ffffffffffffffffffffffffffffffffffffffff163373ffffffffffffffffffffffffffffffffffffffff16145b80613b90575060006002600481101515613b3f57fe5b0160009054906101000a900473ffffffffffffffffffffffffffffffffffffffff1673ffffffffffffffffffffffffffffffffffffffff163373ffffffffffffffffffffffffffffffffffffffff16145b80613bf7575060006003600481101515613ba657fe5b0160009054906101000a900473ffffffffffffffffffffffffffffffffffffffff1673ffffffffffffffffffffffffffffffffffffffff163373ffffffffffffffffffffffffffffffffffffffff16145b1515613c0257600080fd5b600073ffffffffffffffffffffffffffffffffffffffff168373ffffffffffffffffffffffffffffffffffffffff1614151515613c3e57600080fd5b60008210158015613c4f5750601082105b1515613c5a57600080fd5b82600483601081101515613c6a57fe5b0160006101000a81548173ffffffffffffffffffffffffffffffffffffffff021916908373ffffffffffffffffffffffffffffffffffffffff1602179055506001905092915050565b600060208551101515613cc557600080fd5b83518551141515613cd557600080fd5b600083905060008090505b8651811015613dc75760008782815181101515613cf957fe5b9060200190602002015190508682815181101515613d1357fe5b9060200190602002015115613d585780836040516020018083815260200182815260200192505050604051602081830303815290604052805190602001209250613db9565b8682815181101515613d6657fe5b906020019060200201511515613dac5782816040516020018083815260200182815260200192505050604051602081830303815290604052805190602001209250613db8565b60009350505050613dcf565b5b508080600101915050613ce0565b508281149150505b949350505050565b600073ffffffffffffffffffffffffffffffffffffffff163373ffffffffffffffffffffffffffffffffffffffff1614151515613e1357600080fd5b60046000601081101515613e2357fe5b0160009054906101000a900473ffffffffffffffffffffffffffffffffffffffff1673ffffffffffffffffffffffffffffffffffffffff163373ffffffffffffffffffffffffffffffffffffffff161480613eda575060046001601081101515613e8957fe5b0160009054906101000a900473ffffffffffffffffffffffffffffffffffffffff1673ffffffffffffffffffffffffffffffffffffffff163373ffffffffffffffffffffffffffffffffffffffff16145b80613f41575060046002601081101515613ef057fe5b0160009054906101000a900473ffffffffffffffffffffffffffffffffffffffff1673ffffffffffffffffffffffffffffffffffffffff163373ffffffffffffffffffffffffffffffffffffffff16145b80613fa8575060046003601081101515613f5757fe5b0160009054906101000a900473ffffffffffffffffffffffffffffffffffffffff1673ffffffffffffffffffffffffffffffffffffffff163373ffffffffffffffffffffffffffffffffffffffff16145b8061400e5750600480601081101515613fbd57fe5b0160009054906101000a900473ffffffffffffffffffffffffffffffffffffffff1673ffffffffffffffffffffffffffffffffffffffff163373ffffffffffffffffffffffffffffffffffffffff16145b8061407557506004600560108110151561402457fe5b0160009054906101000a900473ffffffffffffffffffffffffffffffffffffffff1673ffffffffffffffffffffffffffffffffffffffff163373ffffffffffffffffffffffffffffffffffffffff16145b806140dc57506004600660108110151561408b57fe5b0160009054906101000a900473ffffffffffffffffffffffffffffffffffffffff1673ffffffffffffffffffffffffffffffffffffffff163373ffffffffffffffffffffffffffffffffffffffff16145b806141435750600460076010811015156140f257fe5b0160009054906101000a900473ffffffffffffffffffffffffffffffffffffffff1673ffffffffffffffffffffffffffffffffffffffff163373ffffffffffffffffffffffffffffffffffffffff16145b806141aa57506004600860108110151561415957fe5b0160009054906101000a900473ffffffffffffffffffffffffffffffffffffffff1673ffffffffffffffffffffffffffffffffffffffff163373ffffffffffffffffffffffffffffffffffffffff16145b806142115750600460096010811015156141c057fe5b0160009054906101000a900473ffffffffffffffffffffffffffffffffffffffff1673ffffffffffffffffffffffffffffffffffffffff163373ffffffffffffffffffffffffffffffffffffffff16145b8061427857506004600a60108110151561422757fe5b0160009054906101000a900473ffffffffffffffffffffffffffffffffffffffff1673ffffffffffffffffffffffffffffffffffffffff163373ffffffffffffffffffffffffffffffffffffffff16145b806142df57506004600b60108110151561428e57fe5b0160009054906101000a900473ffffffffffffffffffffffffffffffffffffffff1673ffffffffffffffffffffffffffffffffffffffff163373ffffffffffffffffffffffffffffffffffffffff16145b8061434657506004600c6010811015156142f557fe5b0160009054906101000a900473ffffffffffffffffffffffffffffffffffffffff1673ffffffffffffffffffffffffffffffffffffffff163373ffffffffffffffffffffffffffffffffffffffff16145b806143ad57506004600d60108110151561435c57fe5b0160009054906101000a900473ffffffffffffffffffffffffffffffffffffffff1673ffffffffffffffffffffffffffffffffffffffff163373ffffffffffffffffffffffffffffffffffffffff16145b8061441457506004600e6010811015156143c357fe5b0160009054906101000a900473ffffffffffffffffffffffffffffffffffffffff1673ffffffffffffffffffffffffffffffffffffffff163373ffffffffffffffffffffffffffffffffffffffff16145b8061447b57506004600f60108110151561442a57fe5b0160009054906101000a900473ffffffffffffffffffffffffffffffffffffffff1673ffffffffffffffffffffffffffffffffffffffff163373ffffffffffffffffffffffffffffffffffffffff16145b151561448657600080fd5b600582101580156144985750605f8211155b15156144a357600080fd5b600581101580156144b55750605f8111155b15156144c057600080fd5b81601c8190555080601d819055505050565b60185481565b60008060008060008060006023600089815260200190815260200160002060010154602360008a815260200190815260200160002060020154602360008b815260200190815260200160002060030154602360008c815260200190815260200160002060090154602360008d8152602001908152602001600020600a0154602360008e815260200190815260200160002060080154602360008f815260200190815260200160002060000160009054906101000a900473ffffffffffffffffffffffffffffffffffffffff169650965096509650965096509650919395979092949650565b601460009054906101000a900473ffffffffffffffffffffffffffffffffffffffff1681565b6000601654821015156145f557600080fd5b600060010260236000848152602001908152602001600020600901541415151561461e57600080fd5b6146408585856023600087815260200190815260200160002060090154613cb3565b9050949350505050565b61465261594a565b60006004806020026040519081016040528092919082600480156146c1576020028201915b8160009054906101000a900473ffffffffffffffffffffffffffffffffffffffff1673ffffffffffffffffffffffffffffffffffffffff1681526020019060010190808311614677575b5050505050905090565b60008073ffffffffffffffffffffffffffffffffffffffff163373ffffffffffffffffffffffffffffffffffffffff161415151561470857600080fd5b60008060048110151561471757fe5b0160009054906101000a900473ffffffffffffffffffffffffffffffffffffffff1673ffffffffffffffffffffffffffffffffffffffff163373ffffffffffffffffffffffffffffffffffffffff1614806147ce57506000600160048110151561477d57fe5b0160009054906101000a900473ffffffffffffffffffffffffffffffffffffffff1673ffffffffffffffffffffffffffffffffffffffff163373ffffffffffffffffffffffffffffffffffffffff16145b806148355750600060026004811015156147e457fe5b0160009054906101000a900473ffffffffffffffffffffffffffffffffffffffff1673ffffffffffffffffffffffffffffffffffffffff163373ffffffffffffffffffffffffffffffffffffffff16145b8061489c57506000600360048110151561484b57fe5b0160009054906101000a900473ffffffffffffffffffffffffffffffffffffffff1673ffffffffffffffffffffffffffffffffffffffff163373ffffffffffffffffffffffffffffffffffffffff16145b15156148a757600080fd5b81600060036004811015156148b857fe5b0160006101000a81548173ffffffffffffffffffffffffffffffffffffffff021916908373ffffffffffffffffffffffffffffffffffffffff16021790555060019050919050565b6000808260ff16101580156149195750603f8260ff1611155b151561492457600080fd5b600160028360ff1681151561493557fe5b0660ff1614156149dd5760108360028460ff1681151561495157fe5b0460ff1660208110151561496157fe5b1a7f0100000000000000000000000000000000000000000000000000000000000000027f0100000000000000000000000000000000000000000000000000000000000000900460ff168115156149b357fe5b067f0100000000000000000000000000000000000000000000000000000000000000029050614a77565b60108360028460ff168115156149ef57fe5b0460ff166020811015156149ff57fe5b1a7f0100000000000000000000000000000000000000000000000000000000000000027f0100000000000000000000000000000000000000000000000000000000000000900460ff16811515614a5157fe5b047f01000000000000000000000000000000000000000000000000000000000000000290505b92915050565b601a5481565b60008082141515614aac5760246000838152602001908152602001600020600001549050614ac8565b6024600060185481526020019081526020016000206000015490505b919050565b60236020528060005260406000206000915090508060000160009054906101000a900473ffffffffffffffffffffffffffffffffffffffff169080600101549080600201549080600301549080600401549080600501549080600601549080600701549080600801549080600901549080600a015490508b565b60165481565b6000806000806000851415614b66576018549050614b6a565b8490505b8060246000838152602001908152602001600020600501546024600084815260200190815260200160002060070154935093509350509193909250565b60008060008060008060008060008060006018548c1415614bd357600090506002601854019150614bda565b8b90508b91505b80602460008481526020019081526020016000206000015460246000858152602001908152602001600020600101546024600086815260200190815260200160002060040154602460008781526020019081526020016000206006015460246000888152602001908152602001600020600701546024600089815260200190815260200160002060020154602460008a815260200190815260200160002060030154602460008b8152602001908152602001600020600501549a509a509a509a509a509a509a509a509a5050509193959799909294969850565b60008073ffffffffffffffffffffffffffffffffffffffff168273ffffffffffffffffffffffffffffffffffffffff161415614cf3576000905061535e565b60046000601081101515614d0357fe5b0160009054906101000a900473ffffffffffffffffffffffffffffffffffffffff1673ffffffffffffffffffffffffffffffffffffffff168273ffffffffffffffffffffffffffffffffffffffff161480614dba575060046001601081101515614d6957fe5b0160009054906101000a900473ffffffffffffffffffffffffffffffffffffffff1673ffffffffffffffffffffffffffffffffffffffff168273ffffffffffffffffffffffffffffffffffffffff16145b80614e21575060046002601081101515614dd057fe5b0160009054906101000a900473ffffffffffffffffffffffffffffffffffffffff1673ffffffffffffffffffffffffffffffffffffffff168273ffffffffffffffffffffffffffffffffffffffff16145b80614e88575060046003601081101515614e3757fe5b0160009054906101000a900473ffffffffffffffffffffffffffffffffffffffff1673ffffffffffffffffffffffffffffffffffffffff168273ffffffffffffffffffffffffffffffffffffffff16145b80614eee5750600480601081101515614e9d57fe5b0160009054906101000a900473ffffffffffffffffffffffffffffffffffffffff1673ffffffffffffffffffffffffffffffffffffffff168273ffffffffffffffffffffffffffffffffffffffff16145b80614f55575060046005601081101515614f0457fe5b0160009054906101000a900473ffffffffffffffffffffffffffffffffffffffff1673ffffffffffffffffffffffffffffffffffffffff168273ffffffffffffffffffffffffffffffffffffffff16145b80614fbc575060046006601081101515614f6b57fe5b0160009054906101000a900473ffffffffffffffffffffffffffffffffffffffff1673ffffffffffffffffffffffffffffffffffffffff168273ffffffffffffffffffffffffffffffffffffffff16145b80615023575060046007601081101515614fd257fe5b0160009054906101000a900473ffffffffffffffffffffffffffffffffffffffff1673ffffffffffffffffffffffffffffffffffffffff168273ffffffffffffffffffffffffffffffffffffffff16145b8061508a57506004600860108110151561503957fe5b0160009054906101000a900473ffffffffffffffffffffffffffffffffffffffff1673ffffffffffffffffffffffffffffffffffffffff168273ffffffffffffffffffffffffffffffffffffffff16145b806150f15750600460096010811015156150a057fe5b0160009054906101000a900473ffffffffffffffffffffffffffffffffffffffff1673ffffffffffffffffffffffffffffffffffffffff168273ffffffffffffffffffffffffffffffffffffffff16145b8061515857506004600a60108110151561510757fe5b0160009054906101000a900473ffffffffffffffffffffffffffffffffffffffff1673ffffffffffffffffffffffffffffffffffffffff168273ffffffffffffffffffffffffffffffffffffffff16145b806151bf57506004600b60108110151561516e57fe5b0160009054906101000a900473ffffffffffffffffffffffffffffffffffffffff1673ffffffffffffffffffffffffffffffffffffffff168273ffffffffffffffffffffffffffffffffffffffff16145b8061522657506004600c6010811015156151d557fe5b0160009054906101000a900473ffffffffffffffffffffffffffffffffffffffff1673ffffffffffffffffffffffffffffffffffffffff168273ffffffffffffffffffffffffffffffffffffffff16145b8061528d57506004600d60108110151561523c57fe5b0160009054906101000a900473ffffffffffffffffffffffffffffffffffffffff1673ffffffffffffffffffffffffffffffffffffffff168273ffffffffffffffffffffffffffffffffffffffff16145b806152f457506004600e6010811015156152a357fe5b0160009054906101000a900473ffffffffffffffffffffffffffffffffffffffff1673ffffffffffffffffffffffffffffffffffffffff168273ffffffffffffffffffffffffffffffffffffffff16145b8061535b57506004600f60108110151561530a57fe5b0160009054906101000a900473ffffffffffffffffffffffffffffffffffffffff1673ffffffffffffffffffffffffffffffffffffffff168273ffffffffffffffffffffffffffffffffffffffff16145b90505b919050565b6000601654905090565b601f5481565b60006154038b8b80806020026020016040519081016040528093929190818152602001838360200280828437600081840152601f19601f820116905080830192505050505050508a8a80806020026020016040519081016040528093929190818152602001838360200280828437600081840152601f19601f820116905080830192505050505050508989612f9e565b151561540e57600080fd5b602460008d815260200190815260200160002060020154861115151561543357600080fd5b6154403386868686611640565b151561544b57600080fd5b6154558c886158d3565b151561546057600080fd5b6018548c148061547457506001601854018c145b151561547f57600080fd5b60001515602660008e815260200190815260200160002060003373ffffffffffffffffffffffffffffffffffffffff1673ffffffffffffffffffffffffffffffffffffffff16815260200190815260200160002060009054906101000a900460ff16151514151561553b576040517f08c379a000000000000000000000000000000000000000000000000000000000815260040180806020018281038252602a81526020018061596e602a913960400191505060405180910390fd5b600160266000601854815260200190815260200160002060003373ffffffffffffffffffffffffffffffffffffffff1673ffffffffffffffffffffffffffffffffffffffff16815260200190815260200160002060006101000a81548160ff021916908315150217905550601560009054906101000a900473ffffffffffffffffffffffffffffffffffffffff1673ffffffffffffffffffffffffffffffffffffffff166340c10f19336022546040518363ffffffff167c0100000000000000000000000000000000000000000000000000000000028152600401808373ffffffffffffffffffffffffffffffffffffffff1673ffffffffffffffffffffffffffffffffffffffff16815260200182815260200192505050602060405180830381600087803b15801561566d57600080fd5b505af1158015615681573d6000803e3d6000fd5b505050506040513d602081101561569757600080fd5b8101908080519060200190929190505050509b9a5050505050505050505050565b6000601a819055506000601b81905550600060198190555083602460006018548152602001908152602001600020600401819055508260246000601854815260200190815260200160002060050181905550816024600060185481526020019081526020016000206006018190555080602460006018548152602001908152602001600020600701819055506001602060006101000a81548160ff0219169083151502179055506001601860008282540192505081905550600085601854604051602001808381526020018281526020019250505060405160208183030381529060405280519060200120905061010060405190810160405280828152602001600160165401815260200160008152602001600060010281526020016000815260200160008152602001600060010281526020016000600102815250602460006018548152602001908152602001600020600082015181600001556020820151816001015560408201518160020155606082015181600301556080820151816004015560a0820151816005015560c0820151816006015560e082015181600701559050506018546025600083815260200190815260200160002081905550505050505050565b600060648210151561589357605f90506158ad565b600a821015156158a8576005820390506158ad565b600590505b919050565b6000605a821115156158c9576005820190506158ce565b605f90505b919050565b6000601854831015801561590157506000600102602460008581526020019081526020016000206003015414155b151561590c57600080fd5b6000602460008581526020019081526020016000206003015490506159418184602060019054906101000a900460ff1661190f565b91505092915050565b60806040519081016040528060049060208202803883398082019150509050509056fe416e206163636f756e742063616e206f6e6c7920636c61696d206f6e636520706572206f70526f756e64a165627a7a7230582056b840c92279ec83ace5974c089e6095fd27bc22c59527a93fc3e90c8c7adfe50029",
  "source": "pragma solidity ^0.5.2;\nimport \"./lib/safe-math.sol\";\nimport \"./Interfaces/MemberShipInterface.sol\";\nimport \"./Interfaces/QOTInterface.sol\";\n\n// TODO: use safemath\n\ncontract BlockRegistry{\n    using SafeMath for uint256;\n\n    // Variables\n    address[4] public managers;  // use \"coreManagers\" and \"managers\" as in \"MemberShip.sol\"?\n    address[16] public validators;\n    address public memberContractAddr;\n    address public QOTAddr;\n    uint public nowSblockNo;  // start from 1\n    uint public sblockTimeStep = 15 minutes;  // it's a minimum timestep\n    // bool public opRoundStatus = true;  // need `true` for 1st round; or simply use \"pause/unpause\"?\n    uint public opRound;\n    uint public articleCount;\n    // variables with `v1` or `vote1`: lottery; with `v2` or `vote2`: claim\n    uint public roundVote1Count;\n    uint public roundVote2Count;\n    uint public vote1Threshold = 40;  // between 5 and 95, step 5\n    uint public vote2Threshold = 40;  // between 5 and 95, step 5\n    uint public v1EndTime;\n    uint public v2EndTime;\n    bool public atV1;\n    uint8 public numRange = 8;  // it means pick x out of 16 numbers; should eventually make it constant\n    uint public maxVoteTime = 15 minutes;  // an Opround cannot longer than 2*maxVoteTime; use small values for debug\n    uint public reward = 100;  // should be a global (constant) variable. Or fix a value in QOT\n\n    struct blockStat{\n        address validator;\n        uint blockHeight;  // block.number while submission\n        bytes32 merkleRoot;  // IPFs hash string to bytes32: \n        bytes32 ipfsAddr;  // string to hex (in js): ethUtils.bufferToHex(bs58.decode(ipfsHash).slice(2));\n        uint timestamp;\n        uint uniqArticleCount;\n        uint vote1Count;\n        uint vote2Count;\n        bytes32 opRoundId;\n        bytes32 aidMerkleRoot;\n        bytes32 aidIpfsAddr;\n    }\n    mapping (uint => blockStat) public blockHistory;  // sblockNo to blockStat\n\n    struct opRoundStruct{\n        // update during creation of this opRound\n        bytes32 id;\n        uint initBlockNo;\n        // update in lottery-sblock\n        uint lotteryBlockNo;\n        bytes32 lotteryWinNumber;\n        // update in final-sblock\n        uint minSuccessRate;  // shoud be an integer between 0 and 100; this is used in next opRound\n        uint baseline;  // i.e, the total votes of the vote2 winner\n        bytes32 succesRateDB;  // IPFS contain success rate\n        bytes32 finalListIpfs;\n    }\n    mapping (uint => opRoundStruct) opRoundHistory;\n    mapping (bytes32 => uint) opRoundIdToNum;  // opRound id to opRound number\n    // mapping (uint => uint) public lotterySblockNo;  // give `opRound`, return the corresponding `sblock_no` while lottery happened\n    // mapping (uint => bytes32) public opRoundLog;  // opRound index to opRound id\n    mapping (uint => mapping(address => bool)) opRoundClaimed;\n\n    constructor(address _memberContractAddr, address _QOTAddr) public {\n        memberContractAddr = _memberContractAddr;\n        QOTAddr = _QOTAddr;\n        managers = [ 0xB440ea2780614b3c6a00e512f432785E7dfAFA3E,\n                     0x4AD56641C569C91C64C28a904cda50AE5326Da41,\n                     0xaF7400787c54422Be8B44154B1273661f1259CcD,\n                     address(0)];\n        validators = [ 0xB440ea2780614b3c6a00e512f432785E7dfAFA3E,\n                       0x4AD56641C569C91C64C28a904cda50AE5326Da41,\n                       0xaF7400787c54422Be8B44154B1273661f1259CcD,\n                       address(0), address(0), address(0), address(0), address(0),\n                       address(0), address(0), address(0), address(0), address(0),\n                       address(0), address(0), address(0)];\n        blockHistory[0] = blockStat(msg.sender, block.number, 0x0, 0x0, block.timestamp,\n                                    0, 0, 0, 0x0, 0x0, 0x0);\n        // opRoundHistory[0] = opRoundStruct(0x0000000000000000000000000000000000000000000000000000000000000001,\n        //                                   nowSblockNo, 0, 0x0, 0, 0, 0x0, 0x0);\n        nowSblockNo = 1;\n    }\n\n    // Modifiers\n    modifier managerOnly() {\n        require(msg.sender != address(0));\n        require(msg.sender == managers[0] || msg.sender == managers[1] || msg.sender == managers[2] || msg.sender == managers[3]);\n        _;\n    }\n\n    modifier validatorOnly() {\n        require(msg.sender != address(0));\n        require(msg.sender == validators[0] || msg.sender == validators[1] || msg.sender == validators[2] ||\n                msg.sender == validators[3] || msg.sender == validators[4] || msg.sender == validators[5] ||\n                msg.sender == validators[6] || msg.sender == validators[7] || msg.sender == validators[8] ||\n                msg.sender == validators[9] || msg.sender == validators[10] || msg.sender == validators[11] ||\n                msg.sender == validators[12] || msg.sender == validators[13] || msg.sender == validators[14] ||\n                msg.sender == validators[15]);\n        _;\n    }\n\n    // some adjustable functions only for developing phase\n    function updateMaxVoteTime(uint _seconds) public validatorOnly {\n        require(_seconds > 180 && _seconds < 86400);  // restrict to a range\n        maxVoteTime = _seconds;\n    }\n\n    function setThreshold(uint _x, uint _y) public validatorOnly{\n        require(_x >= 5 && _x <=95);\n        require(_y >= 5 && _y <=95);\n        vote1Threshold = _x;\n        vote2Threshold = _y;\n    }\n\n    // some internal functions\n    function _increaseThreshold(uint _x) internal pure returns(uint) {\n        if (_x <= 90) {\n            return _x + 5;\n        } else {\n            return 95;\n        }\n    }\n\n    function _decreaseThreshold(uint _x) internal pure returns(uint) {\n        if (_x >= 100) {\n            return 95;\n        } else if (_x >= 10) {\n            return _x - 5;\n        } else {\n            return 5;\n        }\n    }\n\n    function _toNextOpRound(bytes32 _mr, uint _minSuccessRate, uint _baseline, bytes32 _successRateDB, bytes32 _finalListIpfs) internal {\n        roundVote1Count = 0;\n        roundVote2Count = 0;\n        articleCount = 0;\n        // MemberShipInterface(memberContractAddr).updateActiveMemberCount(false);  // note: if too frequent, it will not update unless set 'forced=true'\n\n        // update current opRoundHistory\n        opRoundHistory[opRound].minSuccessRate = _minSuccessRate;  // next opRound need this\n        opRoundHistory[opRound].baseline = _baseline;\n        opRoundHistory[opRound].succesRateDB = _successRateDB;\n        opRoundHistory[opRound].finalListIpfs = _finalListIpfs;\n\n        // for next opRound\n        atV1 = true;\n        opRound += 1;\n        bytes32 _oid = bytes32(keccak256(abi.encodePacked(_mr, opRound)));\n        opRoundHistory[opRound] = opRoundStruct(_oid, nowSblockNo+1, 0, 0x0, 0, 0, 0x0, 0x0);\n        opRoundIdToNum[_oid] = opRound;\n    }\n\n    // create a new sblock\n    function submitMerkleRoot(\n        bytes32 _merkleRoot,\n        bytes32 _ipfsAddr,\n        bytes32 _aidMerkleRoot,\n        bytes32 _aidIpfsAddr,\n        bytes32 _successRateDB,\n        bytes32 _finalListIpfs,\n        uint _uniqArticleCount,\n        uint _vote1Count,\n        uint _vote2Count,\n        uint _minSuccessRate,\n        uint _baseline\n    ) public validatorOnly returns (bool) {\n        // Note: a `opRound` contains two parts: `(v1)vote` and `(v2)claim`,\n        //       (v2) may not happen if (v1) takes more than maxVoteTime.\n        // comment some \"require\"s for test purpose\n        // require(block.timestamp >= blockHistory[nowSblockNo] + sblockTimeStep, 'too soon');\n        require(block.timestamp >= blockHistory[nowSblockNo-1].timestamp + 2 minutes);  // 2 min is for test purpose, should be 1 hour(?)\n        require(block.number >= blockHistory[nowSblockNo-1].blockHeight + 5);  // 5 is for test purpose, should be ?\n        require(_merkleRoot != 0x0 && _ipfsAddr != 0x0);\n        require(blockHistory[nowSblockNo-1].merkleRoot != _merkleRoot && blockHistory[nowSblockNo-1].ipfsAddr != _ipfsAddr);  // prevent re-submission\n        require(blockHistory[nowSblockNo].blockHeight == 0 && blockHistory[nowSblockNo].merkleRoot == 0x0 &&\n                blockHistory[nowSblockNo].ipfsAddr == 0x0 && blockHistory[nowSblockNo].timestamp == 0);\n        require(_minSuccessRate >= 0 && _minSuccessRate < 100);  // need the equal for genesis round\n        require(_aidMerkleRoot != 0x0 && _aidIpfsAddr != 0x0);\n        // require: ...\n\n        // a sblock in a opRound cound be of type: genesis, lottery, lottery-NDR, finalist, finalist-NDR, or regular\n        // (NDR = no-draw-round)\n        if (opRound == 0 && articleCount + _uniqArticleCount >= 7) {  // genesis; set small number for test purpose\n            blockHistory[nowSblockNo] = blockStat(\n                msg.sender, block.number, _merkleRoot, _ipfsAddr, block.timestamp,\n                _uniqArticleCount, _vote1Count, _vote2Count, opRoundHistory[opRound].id,\n                _aidMerkleRoot, _aidIpfsAddr\n            );\n            v2EndTime = block.timestamp;  // although no 'claiming', still need to record a time\n            _toNextOpRound(_merkleRoot, 0, 0, 0x0, 0x0);\n        } else if (opRound != 0 && atV1 && (block.timestamp - v2EndTime > maxVoteTime)) {  // A \"no-draw-round\"! Proceed to next OpRound\n            // TODO: uncomment following lines?\n            // require(minSuccessRate == opRoundHistory[opRound-1].minSuccessRate);\n            // require(_baseline == 0);\n            // require(_finalListIpfs == '0x0');\n            // require(_successRateDB == opRoundHistory[opRound-1].succesRateDB);\n            blockHistory[nowSblockNo] = blockStat(\n                msg.sender, block.number, _merkleRoot, _ipfsAddr, block.timestamp,\n                _uniqArticleCount, _vote1Count, _vote2Count, opRoundHistory[opRound].id,\n                _aidMerkleRoot, _aidIpfsAddr\n            );\n            v1EndTime = block.timestamp-1;  // or don't update? BTW, subtract by 1 to make sure v2EndTime > v1Endtime (or no need?)\n            v2EndTime = block.timestamp;  // in case next submit() fall into this if-statement again\n            vote1Threshold = _decreaseThreshold(vote1Threshold);\n            // opRoundHistory[opRound].lotteryBlockNo = nowSblockNo;  // should keep it 0\n            _toNextOpRound(_merkleRoot, _minSuccessRate, _baseline, _successRateDB, _finalListIpfs);\n        } else if (opRound != 0 && atV1 && isEnoughV1(roundVote1Count+_vote1Count)) {  // lottery\n            require(opRoundHistory[opRound].lotteryBlockNo == 0 && opRoundHistory[opRound].lotteryWinNumber == 0x0);\n            blockHistory[nowSblockNo] = blockStat(\n                msg.sender, block.number, _merkleRoot, _ipfsAddr, block.timestamp,\n                _uniqArticleCount, _vote1Count, _vote2Count, opRoundHistory[opRound].id,\n                _aidMerkleRoot, _aidIpfsAddr\n            );\n            v1EndTime = block.timestamp;\n            vote1Threshold = _increaseThreshold(vote1Threshold);\n            opRoundHistory[opRound].lotteryBlockNo = nowSblockNo;\n            opRoundHistory[opRound].lotteryWinNumber = calcLotteryWinNumber(_merkleRoot, blockhash(block.number-1));\n            roundVote2Count = 0;  // should be 0 already but reset anyway\n            atV1 = false;\n        } else if (opRound != 0 && atV1 == false && (block.timestamp - v1EndTime > maxVoteTime)) {  // too long! End this Opround-v2 and proceed to next OpRound\n            // TODO: uncomment following lines?\n            // require(minSuccessRate == opRoundHistory[opRound-1].minSuccessRate);\n            // require(_baseline == 0);\n            // require(_finalListIpfs == '0x0');\n            // require(_successRateDB == opRoundHistory[opRound-1].succesRateDB);\n            blockHistory[nowSblockNo] = blockStat(\n                msg.sender, block.number, _merkleRoot, _ipfsAddr, block.timestamp,\n                _uniqArticleCount, _vote1Count, _vote2Count, opRoundHistory[opRound].id,\n                _aidMerkleRoot, _aidIpfsAddr\n            );\n            vote2Threshold = _decreaseThreshold(vote2Threshold);\n            v2EndTime = block.timestamp;\n            // should validator update new _successRateDB in NDR? should _baseline and finalListIpfs have values?\n            _toNextOpRound(_merkleRoot, _minSuccessRate, _baseline, _successRateDB, _finalListIpfs);\n        } else if (opRound != 0 && atV1 == false && isEnoughV2(roundVote2Count+_vote2Count)) { // finalist\n            // require(_finalListIpfs != 0x0 && _successRateDB != 0x0);\n            require(_baseline >= 1);  // what else reasonable value?\n            blockHistory[nowSblockNo] = blockStat(\n                msg.sender, block.number, _merkleRoot, _ipfsAddr, block.timestamp,\n                _uniqArticleCount, _vote1Count, _vote2Count, opRoundHistory[opRound].id,\n                _aidMerkleRoot, _aidIpfsAddr\n            );\n            vote2Threshold = _increaseThreshold(vote2Threshold);\n            v2EndTime = block.timestamp;\n            _toNextOpRound(_merkleRoot, _minSuccessRate, _baseline, _successRateDB, _finalListIpfs);\n        } else {  // regular sblock, only accumulate votes\n            roundVote1Count += _vote1Count;\n            roundVote2Count += _vote2Count;\n            articleCount += _uniqArticleCount;  // right now, this is only used in genesis\n            blockHistory[nowSblockNo] = blockStat(\n                msg.sender, block.number, _merkleRoot, _ipfsAddr, block.timestamp,\n                _uniqArticleCount, _vote1Count, _vote2Count, opRoundHistory[opRound].id,\n                _aidMerkleRoot, _aidIpfsAddr\n            );\n        }\n\n        nowSblockNo += 1;\n\n        return true;\n    }\n\n    function isEnoughV1(uint v1Count) public view returns (bool) {\n        uint activeMemberCount = MemberShipInterface(memberContractAddr).getActiveMemberCount();\n        require(activeMemberCount >= 3);  // '3' is num of coreManagers, or use 1? 100?\n        uint vote1Rate = (100 * v1Count) / activeMemberCount;\n        // assert(vote1Rate <= 100);  // not true if every can vote multiple times\n        if (vote1Rate >= vote1Threshold) {\n            return true;\n        }\n    }\n\n    function isEnoughV2(uint v2Count) public view returns (bool) {\n        uint activeMemberCount = MemberShipInterface(memberContractAddr).getActiveMemberCount();\n        require(activeMemberCount >= 3);  // '3' is num of coreManagers, or use 1? 100?\n        // vote2Rate select ABOUT 25% of people from 50% of member, i.e., ~1/8 of total members\n        // Here try to keep vote2Rate roughly in the range of 0 and 100, so multiply 8 back.\n        // Note that the '1/8' factor is uncertain, could either over or underestimated\n        uint vote2Rate = (8 * 100 * v2Count) / activeMemberCount;\n        if (vote2Rate >= vote2Threshold) {\n            return true;\n        }\n    }\n\n    // Lottery related\n    function calcLotteryWinNumber(bytes32 _mr, bytes32 _bhash) public pure returns(bytes32) {\n        // require(_mr != 0x0 && _bhash != 0x0);  // leave these checks to other function\n        return keccak256(abi.encodePacked(_mr, _bhash));\n    }\n\n    function _getBytes32HexNthDigit(bytes32 _ticket, uint8 _digit) public pure returns(bytes1){\n        require(_digit >=0 && _digit <=63);  // treat bytes32 as 64 hex characters\n        if (_digit % 2 == 1) {\n            return bytes1(uint8(_ticket[_digit/2])%16);  // _digit/2 = Math.floor(digit/2)\n        } else {\n            return bytes1(uint8(_ticket[_digit/2])/16);\n        }\n    }\n\n    function lotteryWins(bytes32 _winHex, bytes32 _ticket, uint8 _numRange) public pure returns(bool) {\n        // NOTE: in real product, should either record _numRange or make it constant\n        // Rule: A ticket wins if: it's X-th digit (count from behind) is Y\n        // where `X` is determined by first digit of `lotteryWinNumber` (in the range of 0 and 3)\n        // and `Y` is the last digit of `winHex`\n        // the rule of determining `X` and `Y` should sync with 'libSampleTicket.js' in 'OptractP2PCli'\n        require(_numRange >= 1 && _numRange <= 16);\n        uint8 refDigit = uint8(_getBytes32HexNthDigit(_winHex, 0)) % 4;\n        bytes1 winHexChar1 = _getBytes32HexNthDigit(_winHex, 63);  // last digit\n        uint8 w1 = uint8(winHexChar1);\n        uint8 w2 = (w1 + _numRange) % 16;\n        uint8 t = uint8(_getBytes32HexNthDigit(_ticket, 63 - refDigit));\n        if (w2 > w1)  {\n            if (t >= w1 && t < w2) {\n                return true;\n            }\n        } else {\n            if (t >= w1 || t < w2) {\n                return true;\n            }\n        }\n    }\n\n    function _isWinningTicket(uint _opRound, bytes32 _ticket) internal view returns(bool) {\n        require(_opRound >= opRound && opRoundHistory[_opRound].lotteryWinNumber != 0x0);\n        bytes32 winHex = opRoundHistory[_opRound].lotteryWinNumber;\n        return lotteryWins(winHex, _ticket, numRange);\n    }\n\n    function setNumRange(uint8 _numRange) public managerOnly {  // for test only\n        require(_numRange >= 1 && _numRange <=15);\n        numRange = _numRange;\n    }\n\n    function isWinningTicket(uint _opRound, bytes32 _ticket) public view returns(bool, uint) {\n        // TODO: add all merkle validation arguments in order to verify the txHash is BEFORE the lottery\n        return (_isWinningTicket(_opRound, _ticket), opRoundHistory[_opRound-1].minSuccessRate);\n    }\n\n    // claim reward\n    function txExist(bytes32[] memory proof, bool[] memory isLeft, bytes32 txHash, uint _sblockNo) public view returns (bool){\n        require(_sblockNo < nowSblockNo);\n        require(blockHistory[_sblockNo].merkleRoot != 0x0);\n        return merkleTreeValidator(proof, isLeft, txHash, blockHistory[_sblockNo].merkleRoot);\n    }\n\n    function aidExist(bytes32[] memory proof, bool[] memory isLeft, bytes32 aid, uint _sblockNo) public view returns (bool){\n        require(_sblockNo < nowSblockNo);\n        require(blockHistory[_sblockNo].aidMerkleRoot != 0x0);\n        return merkleTreeValidator(proof, isLeft, aid, blockHistory[_sblockNo].aidMerkleRoot);\n    }\n\n    function verifySignature(address _signer, bytes32 _msg, uint8 _v, bytes32 _r, bytes32 _s) public pure returns(bool){\n        // Looks like the default prefix (of ethereum) is not used; should we introduce our own prefix?\n        // bytes memory prefix = \"\\x19Ethereum Signed Message:\\n32\";\n        // bytes32 prefixedHash = keccak256(abi.encodePacked(prefix, _msg));\n        // address signer = ecrecover(prefixedHash, _v, _r, _s);\n        address signer = ecrecover(_msg, _v, _r, _s);\n        return _signer == signer;\n    }\n\n    function setReward(uint _reward) public managerOnly {\n        require(_reward < reward*10);  // other better restrictions?\n        reward = _reward;\n    }\n\n    function claimReward(\n        uint _opRound, bytes32[] calldata proof, bool[] calldata isLeft, bytes32 txHash, uint _sblockNo,\n        bytes32 _payload, uint8 _v, bytes32 _r, bytes32 _s\n    ) external returns(bool) {\n        // requirements:\n        // * the txHash is in the tree\n        // * the txHash happen before the lottery round of that _opRound\n        // * the txHash is submitted by the msg.sender (it should be a v1 vote)\n        // * the txHash is a WinningTicket\n        // * claim in in same opRound (or maybe next opRound is still acceptable?)\n        // * require(opRoundClaimed[opRound][msg.sender] == false, \"Only one claim per opRound\");\n        require(txExist(proof, isLeft, txHash, _sblockNo));\n        require(_sblockNo <= opRoundHistory[_opRound].lotteryBlockNo);\n        require(verifySignature(msg.sender, _payload, _v, _r, _s));  // from v1vote\n        require(_isWinningTicket(_opRound, txHash));\n        require(_opRound == opRound || _opRound == opRound + 1);  // or only in same opRound?\n        require(opRoundClaimed[_opRound][msg.sender] == false, \"An account can only claim once per opRound\");\n\n        opRoundClaimed[opRound][msg.sender] = true;\n        QOTInterface(QOTAddr).mint(msg.sender, reward);\n    }\n\n    // merkle tree and leaves\n    function merkleTreeValidator(\n        bytes32[] memory proof,\n        bool[] memory isLeft,\n        bytes32 targetLeaf,\n        bytes32 _merkleRoot\n    ) public pure returns (bool) {\n        require(proof.length < 32);  // 2**32 ~ 4.3e9 leaves!\n        require(proof.length == isLeft.length);\n\n        bytes32 targetHash = targetLeaf;\n        for (uint256 i = 0; i < proof.length; i++) {\n            bytes32 proofEle = proof[i];\n            if (isLeft[i]) {\n                targetHash = keccak256(abi.encodePacked(proofEle, targetHash));\n            } else if (!isLeft[i]) {\n                targetHash = keccak256(abi.encodePacked(targetHash, proofEle));\n            } else {\n                return false;\n            }\n        }\n        return targetHash == _merkleRoot;\n    }\n\n    // TODO: update these calcLeaf()\n    // function calcLeaf(\n    //     uint _nonce,\n    //     bytes32 _ipfs,\n    //     uint _since,\n    //     uint _agree,\n    //     uint _disagree,\n    //     bytes32 _reply,\n    //     bytes32 _comment\n    // ) external view returns (bytes32) {\n    //     // note: the \"category\" field is not here yet\n    //     return keccak256(abi.encodePacked(_nonce, msg.sender, _ipfs, _since, _agree, _disagree, _reply, _comment));\n    // }\n\n\n    // query\n    function getBlockNo() external view returns (uint) {\n        return nowSblockNo;\n    }\n\n    function getBlockInfo(uint _sblockNo) external view returns (uint, bytes32, bytes32, bytes32, bytes32, bytes32, address) {\n        // TODO: update the results\n        return (blockHistory[_sblockNo].blockHeight,\n                blockHistory[_sblockNo].merkleRoot,\n                blockHistory[_sblockNo].ipfsAddr,\n                blockHistory[_sblockNo].aidMerkleRoot,\n                blockHistory[_sblockNo].aidIpfsAddr,\n                blockHistory[_sblockNo].opRoundId,\n                blockHistory[_sblockNo].validator\n               );\n    }\n\n    function queryValidator(uint _idx) external view returns (address) {\n        require(_idx>=0 && _idx < 16);\n        return validators[_idx];\n    }\n\n    function isValidator(address _addr) external view returns (bool) {\n        if (_addr == address(0)) {\n            return false;\n        } else {\n            return (_addr == validators[0] || _addr == validators[1] || _addr == validators[2] ||\n                    _addr == validators[3] || _addr == validators[4] || _addr == validators[5] ||\n                    _addr == validators[6] || _addr == validators[7] || _addr == validators[8] ||\n                    _addr == validators[9] || _addr == validators[10] || _addr == validators[11] ||\n                    _addr == validators[12] || _addr == validators[13] || _addr == validators[14] ||\n                    _addr == validators[15]);\n        }\n    }\n\n    function queryManagers() external view returns (address[4] memory) {\n        return managers;\n    }\n\n    function queryOpRound() external view returns (uint) {\n        return opRound;\n    }\n\n    function queryOpRoundId(uint _opRound) external view returns (bytes32) {\n        if (_opRound != 0) {\n            return opRoundHistory[_opRound].id;\n        } else {\n            return opRoundHistory[opRound].id;  // current opRound\n        }\n    }\n\n    function queryOpRoundLottery(uint _opRound) external view returns (uint, uint, bytes32) {\n        uint i;\n        if (_opRound == 0) {\n            i = opRound;\n        } else {\n            i = _opRound;\n        }\n        return (i, opRoundHistory[i].lotteryBlockNo, opRoundHistory[i].lotteryWinNumber);\n    }\n\n    function queryOpRoundInfo(uint _opRound) external view returns (uint, bytes32, uint) {\n        uint i;\n        if (_opRound == 0) {\n            i = opRound;\n        } else {\n            i = _opRound;\n        }\n        return (i, opRoundHistory[i].id, opRoundHistory[i].initBlockNo);\n    }\n\n    function queryOpRoundResult(uint _opRound) external view returns (uint, bytes32, uint, uint, bytes32, bytes32, uint, bytes32, uint) {\n        // this function returns default values (0 and 0x0) for current pending opRound\n        // this function is different from other `queryOpRound*()` in that a input of 0 does not mean query current opRound\n        // For opRoundHistory[0], the id is '0x1' and the initBlockNo is the block.height during construction\n        uint i;\n        uint op;\n        if (_opRound == opRound) {  // return (0, 0x0, 0, 0, 0x0, 0x0, 0, 0x0, 0);\n            op = 0;\n            i = opRound + 2;\n            // 'stack too deep' if return (0, 0x0, ...) here and also return in next else-block!?\n        } else {\n            op = _opRound;\n            i = _opRound;\n        }\n        return (op,\n                opRoundHistory[i].id,\n                opRoundHistory[i].initBlockNo,\n                opRoundHistory[i].minSuccessRate,\n                opRoundHistory[i].succesRateDB,\n                opRoundHistory[i].finalListIpfs,\n                opRoundHistory[i].lotteryBlockNo,\n                opRoundHistory[i].lotteryWinNumber,\n                opRoundHistory[i].baseline\n               );\n    }\n\n    function queryOpRoundProgress() external view returns (uint, bool, uint, uint, uint, uint) {\n        return(articleCount, atV1, v1EndTime, v2EndTime, roundVote1Count, roundVote2Count);\n    }\n\n    function queryVoteThresholds() external view returns(uint, uint, uint) {\n        return (opRound, vote1Threshold, vote2Threshold);\n    }\n\n    function queryFinalist(uint _opRound) external view returns(uint, uint, bytes32){\n        uint i;\n        if (_opRound == 0) {\n            i = opRound;\n        } else {\n            i = _opRound;\n        }\n        return (i, opRoundHistory[i].baseline, opRoundHistory[i].finalListIpfs);\n    }\n\n    // upgradable\n    function setValidator(address _newValidator, uint _idx) public managerOnly returns (bool) {\n        require(_newValidator != address(0));\n        require(_idx >=0 && _idx < 16);\n        validators[_idx] = _newValidator;\n        return true;\n    }\n\n    function setManager(address _newManager) public managerOnly returns (bool) {\n        // assume no need to change first 3 managers\n        managers[3] = _newManager;\n        return true;\n    }\n\n}\n",
  "sourcePath": "/home/kai/Work/project/OptractContract/contracts/BlockRegistry.sol",
  "compiler": {
    "name": "solc",
    "version": "0.5.2+commit.1df8f40c.Linux.g++"
  },
  "schemaVersion": "3.0.1",
  "updatedAt": "2019-08-10T03:49:56.644Z",
  "devdoc": {
    "methods": {}
  },
  "userdoc": {
    "methods": {}
  }
}